{
  "contracts/USElection.sol": {
    "USElection": {
      "abi": [
        {
          "anonymous": false,
          "inputs": [
            {
              "indexed": false,
              "internalType": "uint256",
              "name": "winner",
              "type": "uint256"
            }
          ],
          "name": "LogElectionEnded",
          "type": "event"
        },
        {
          "anonymous": false,
          "inputs": [
            {
              "indexed": false,
              "internalType": "uint8",
              "name": "winner",
              "type": "uint8"
            },
            {
              "indexed": false,
              "internalType": "uint8",
              "name": "stateSeats",
              "type": "uint8"
            },
            {
              "indexed": false,
              "internalType": "string",
              "name": "state",
              "type": "string"
            }
          ],
          "name": "LogStateResult",
          "type": "event"
        },
        {
          "inputs": [],
          "name": "BIDEN",
          "outputs": [
            {
              "internalType": "uint8",
              "name": "",
              "type": "uint8"
            }
          ],
          "stateMutability": "view",
          "type": "function"
        },
        {
          "inputs": [],
          "name": "TRUMP",
          "outputs": [
            {
              "internalType": "uint8",
              "name": "",
              "type": "uint8"
            }
          ],
          "stateMutability": "view",
          "type": "function"
        },
        {
          "inputs": [],
          "name": "currentLeader",
          "outputs": [
            {
              "internalType": "uint8",
              "name": "",
              "type": "uint8"
            }
          ],
          "stateMutability": "view",
          "type": "function"
        },
        {
          "inputs": [],
          "name": "electionEnded",
          "outputs": [
            {
              "internalType": "bool",
              "name": "",
              "type": "bool"
            }
          ],
          "stateMutability": "view",
          "type": "function"
        },
        {
          "inputs": [],
          "name": "endElection",
          "outputs": [],
          "stateMutability": "nonpayable",
          "type": "function"
        },
        {
          "inputs": [],
          "name": "getOwner",
          "outputs": [
            {
              "internalType": "address",
              "name": "",
              "type": "address"
            }
          ],
          "stateMutability": "view",
          "type": "function"
        },
        {
          "inputs": [],
          "name": "owner",
          "outputs": [
            {
              "internalType": "address",
              "name": "",
              "type": "address"
            }
          ],
          "stateMutability": "view",
          "type": "function"
        },
        {
          "inputs": [
            {
              "internalType": "string",
              "name": "",
              "type": "string"
            }
          ],
          "name": "resultsSubmitted",
          "outputs": [
            {
              "internalType": "bool",
              "name": "",
              "type": "bool"
            }
          ],
          "stateMutability": "view",
          "type": "function"
        },
        {
          "inputs": [
            {
              "internalType": "uint8",
              "name": "",
              "type": "uint8"
            }
          ],
          "name": "seats",
          "outputs": [
            {
              "internalType": "uint8",
              "name": "",
              "type": "uint8"
            }
          ],
          "stateMutability": "view",
          "type": "function"
        },
        {
          "inputs": [
            {
              "components": [
                {
                  "internalType": "string",
                  "name": "name",
                  "type": "string"
                },
                {
                  "internalType": "uint256",
                  "name": "votesBiden",
                  "type": "uint256"
                },
                {
                  "internalType": "uint256",
                  "name": "votesTrump",
                  "type": "uint256"
                },
                {
                  "internalType": "uint8",
                  "name": "stateSeats",
                  "type": "uint8"
                }
              ],
              "internalType": "struct USElection.StateResult",
              "name": "result",
              "type": "tuple"
            }
          ],
          "name": "submitStateResult",
          "outputs": [],
          "stateMutability": "nonpayable",
          "type": "function"
        }
      ],
      "evm": {
        "bytecode": {
          "linkReferences": {},
          "object": "608060405234801561001057600080fd5b506100437fe5bd0f4cf20a27f86802d5273934a768649c0c9d73a958f5b31dafab231c59d160001b6100ec60201b60201c565b6100757f27440cc580482bfa00943011535d4266b2603cc988065cb7a419ea258965c6d260001b6100ec60201b60201c565b6100a77f2baeb31578da9782ea85c52cadc05c5b8bf68bf560abe3156286d04d2692457860001b6100ec60201b60201c565b336000806101000a81548173ffffffffffffffffffffffffffffffffffffffff021916908373ffffffffffffffffffffffffffffffffffffffff1602179055506100ef565b50565b611c1380620000ff6000396000f3fe608060405234801561001057600080fd5b506004361061009e5760003560e01c8063893d20e811610066578063893d20e8146101495780638da5cb5b14610167578063ac4bd53a14610185578063c94ca9e3146101a3578063e494a883146101c15761009e565b80632d78d8e5146100a357806337ad98ec146100c157806359f78468146100f157806369b36bd4146100fb578063713d87c514610119575b600080fd5b6100ab6101dd565b6040516100b8919061186c565b60405180910390f35b6100db60048036038101906100d6919061157a565b6101e2565b6040516100e89190611796565b60405180910390f35b6100f9610218565b005b61010361063d565b604051610110919061186c565b60405180910390f35b610133600480360381019061012e91906115fc565b610642565b604051610140919061186c565b60405180910390f35b610151610662565b60405161015e919061177b565b60405180910390f35b61016f61070e565b60405161017c919061177b565b60405180910390f35b61018d610732565b60405161019a919061186c565b60405180910390f35b6101ab610a9a565b6040516101b89190611796565b60405180910390f35b6101db60048036038101906101d691906115bb565b610aad565b005b600281565b6002818051602081018201805184825260208301602085012081835280955050505050506000915054906101000a900460ff1681565b6102447fea68c6e71f931550975ad682a4460424a0ab6f69e4667dbc600202c894a4a34860001b6114dc565b6102707f31ecc15382b4e82889f26c2d68c66b561b14e864f08ac2fbfa71bb019b7d2a3c60001b6114dc565b61029c7f81ecfcba80de40bbe5d383f44708112820b2f8d3a50e207f4e0c8100d175615360001b6114dc565b6102c87fd15f9d586e68dce4ff85de1c2b5726d5547a7b99d074d9c11db87fae3f0337ee60001b6114dc565b3373ffffffffffffffffffffffffffffffffffffffff1660008054906101000a900473ffffffffffffffffffffffffffffffffffffffff1673ffffffffffffffffffffffffffffffffffffffff1614610356576040517f08c379a000000000000000000000000000000000000000000000000000000000815260040161034d90611831565b60405180910390fd5b6103827fcc8f782b97859d38a3ac79c7dc02c5f1afb0f9d7ac61823bbd0d113d4317ee9f60001b6114dc565b6103ae7f4e62f73dbbd593da3c0765b692faef2294884aa74e7dea5391a555261b58056c60001b6114dc565b6103da7f4a20351ed126ebce4b672b731014f9acc834cfbfcac29e985fa638c5a87a338460001b6114df565b6104067fa73e64de2a26dabd68777b95e2d6916f5c49866b4430a25514d0b1e7f32bfa9960001b6114df565b6104327f50d05dcb409d001bad2c0f2bd08729398b47b3db76f8b0229046306836229a0f60001b6114df565b61045e7f911d658c2dc14bca9477e93ce2775d4dd7fad3eb39eb02f849dd01922e6e8e3660001b6114df565b600060149054906101000a900460ff16156104ae576040517f08c379a00000000000000000000000000000000000000000000000000000000081526004016104a5906117d1565b60405180910390fd5b6104da7f99b6752d35eb8093b526e8ca9083bf7498ace4c3ce5f4090bded0d6d9d803bad60001b6114df565b6105067f2050a51d722792350a0628a8b1aeef5baeda39b34c61de5f06e78ade680b582460001b6114df565b6105327f634e07be9a47bc5b762e1b56baf6d3dc01337ed3f1a76ef348a8aa25039ec52460001b6114df565b61055e7f14f2a5f33c1921245810a99f953182f8163134268dc39683f38bc483154933ae60001b6114df565b61058a7f85b7ea7101a0ecccd1718e9718be3701541c648cca3cb2b70fc036a17236eb0360001b6114df565b6001600060146101000a81548160ff0219169083151502179055506105d17f40912a952524e4b4ab6dae934214edee307fba207cfafad80a4db086bd8df91460001b6114df565b6105fd7f8c96e115267c3d3454d69bcf84dee9f4dd1ff072760e41a3ce0fe6a0dcce998f60001b6114df565b7faacb23683ec1a0e9b52f9a6264edf58ad322ac62079d65ea7363a2d400f439f4610626610732565b6040516106339190611851565b60405180910390a1565b600181565b60016020528060005260406000206000915054906101000a900460ff1681565b60006106907f659780324d7853406323093a03de19279053cbffbd8305f12a81e15d20080e9460001b6114df565b6106bc7f31f6bf70172ac4e39b8ce6e7e48c389673822de4b71a36ed42f292af31b873c560001b6114df565b6106e87fd64d34b8d6eac3705dba8e197d607296ce82a31b94a9391308a6675ac2fbff9160001b6114df565b60008054906101000a900473ffffffffffffffffffffffffffffffffffffffff16905090565b60008054906101000a900473ffffffffffffffffffffffffffffffffffffffff1681565b60006107607fd03f5e7f0c552a9ca03affc6a3378b9725bdcc393f6f62d0bd54d9d8ac52a20860001b6114df565b61078c7f3481a81b5d15832fba45f12acead4b8ef74153498335aa209a7dede09c70571f60001b6114df565b6107b87fc024f09b39d49eb37e7694452f8a01130df6fee7c4cec3bb37d3eaeffb1ac8ac60001b6114df565b60016000600260ff1660ff16815260200190815260200160002060009054906101000a900460ff1660ff1660016000600160ff1660ff16815260200190815260200160002060009054906101000a900460ff1660ff1611156108a1576108407fd8ecf95801e8e17323e2648892184ce64d758085ce22f48b6c3ac0bb292abc2360001b6114df565b61086c7f5e3781c1756814e89d446618c4b0edb998c4674e2e858b53adb48299cc8c43ea60001b6114df565b6108987fee11560920388221c858bd40aa07cba9bbe15e5e3e8e468269c8d056ee6d5d4560001b6114df565b60019050610a97565b6108cd7f145af536f381bf4e2271d204451c95cc2f1ad496c8e6afdcbfbd5894f4ea4cbb60001b6114df565b6108f97f73893f50c7ab751c68c3537b7cc6d88e56889894976f2c76221a352251f6533560001b6114df565b6109257f1c50b1e69a80060ed4cdc9215c09fcce420d947333774b32af13ac63e7990a5160001b6114df565b60016000600160ff1660ff16815260200190815260200160002060009054906101000a900460ff1660ff1660016000600260ff1660ff16815260200190815260200160002060009054906101000a900460ff1660ff161115610a0e576109ad7f6d119dba1e5c6d9789faffd58d136ea6df6242e9383ca5d4e7f4fafcffbde34860001b6114df565b6109d97fe57e7f2b82961d8932cb9fc114c60365e06baf1b8d5c56dff2d43a45481607fb60001b6114df565b610a057fa3779270fa7d8a0521857c6e2ab72336a591b9ac254369f1eb27744da97f42e060001b6114df565b60029050610a97565b610a3a7f3ab63208caac1c37dab7d1e0a0690ed6119e016e5fe2a0ded26f43c27750fe9e60001b6114df565b610a667f7a5dbf8e8c8bca5c5832e71838a2aecef47a1266060d4b6a3b81930bfc208c4960001b6114df565b610a927f80dd3697da1f303b78103c1329acec1e7eb9c0711844eb6a8eac3b62ffc6b7d460001b6114df565b600090505b90565b600060149054906101000a900460ff1681565b610ad97fea68c6e71f931550975ad682a4460424a0ab6f69e4667dbc600202c894a4a34860001b6114dc565b610b057f31ecc15382b4e82889f26c2d68c66b561b14e864f08ac2fbfa71bb019b7d2a3c60001b6114dc565b610b317f81ecfcba80de40bbe5d383f44708112820b2f8d3a50e207f4e0c8100d175615360001b6114dc565b610b5d7fd15f9d586e68dce4ff85de1c2b5726d5547a7b99d074d9c11db87fae3f0337ee60001b6114dc565b3373ffffffffffffffffffffffffffffffffffffffff1660008054906101000a900473ffffffffffffffffffffffffffffffffffffffff1673ffffffffffffffffffffffffffffffffffffffff1614610beb576040517f08c379a0000000000000000000000000000000000000000000000000000000008152600401610be290611831565b60405180910390fd5b610c177fcc8f782b97859d38a3ac79c7dc02c5f1afb0f9d7ac61823bbd0d113d4317ee9f60001b6114dc565b610c437f4e62f73dbbd593da3c0765b692faef2294884aa74e7dea5391a555261b58056c60001b6114dc565b610c6f7f4a20351ed126ebce4b672b731014f9acc834cfbfcac29e985fa638c5a87a338460001b6114df565b610c9b7fa73e64de2a26dabd68777b95e2d6916f5c49866b4430a25514d0b1e7f32bfa9960001b6114df565b610cc77f50d05dcb409d001bad2c0f2bd08729398b47b3db76f8b0229046306836229a0f60001b6114df565b610cf37f911d658c2dc14bca9477e93ce2775d4dd7fad3eb39eb02f849dd01922e6e8e3660001b6114df565b600060149054906101000a900460ff1615610d43576040517f08c379a0000000000000000000000000000000000000000000000000000000008152600401610d3a906117d1565b60405180910390fd5b610d6f7f99b6752d35eb8093b526e8ca9083bf7498ace4c3ce5f4090bded0d6d9d803bad60001b6114df565b610d9b7f2050a51d722792350a0628a8b1aeef5baeda39b34c61de5f06e78ade680b582460001b6114df565b610dc77f24fba1b926e183f304c8a7a51801b94a1da9b4655d2dfbd5e4df6ee9b583a64b60001b6114df565b610df37f540862f44d9f69ee8a11edef385bf8e719bf0b51fbef624237b45930865cec6b60001b6114df565b610e1f7f7e99751849cb7733888fa3f69f7d2851fa9485a90a81bd072e0718dc8baa589160001b6114df565b610e4b7fa6bcbbfc685aaa3bc3d739d239f577013d53bf5b748158b10e7d6d314b86cb3760001b6114df565b6000816060016020810190610e6091906115fc565b60ff1611610ea3576040517f08c379a0000000000000000000000000000000000000000000000000000000008152600401610e9a90611811565b60405180910390fd5b610ecf7f76e3a7f4ad120ec6250c019b3c8ff5d95983225fad6c64afdeb8b7c94cdba38460001b6114df565b610efb7f5074e8053992df50d12dfd6d0b976b1cac9e0de5dbedf312f0b493a89bb6caeb60001b6114df565b610f277ff1bea036b0cf0c8a88cd71c92abba2e3f16a5a78d24ecfbc7e00da5c31340f6660001b6114df565b610f537f0d7ebd290c013e41e34b0dcb6f15fad945fe5cd715aca3b324d38a543c3204df60001b6114df565b806040013581602001351415610f9e576040517f08c379a0000000000000000000000000000000000000000000000000000000008152600401610f95906117f1565b60405180910390fd5b610fca7f7173ebda9660f927cfb6d1285aad3bb33ab76794908e46cebe3ff0c42cf7107660001b6114df565b610ff67fb846279d1d81ffd1041e29ae9c7b25f1c6609886ea5f9863ae5d174e1a26736c60001b6114df565b6110227fcb422543103c57e173e9f9be7ca098599033d51c3960b03de3a8030ec526515560001b6114df565b61104e7f9d0d1adabb9e9f4316e3ad381ee8c473efd2ab7ddb55bfe17e7aefb8e6671dc960001b6114df565b600281806000019061106091906118c7565b60405161106e929190611762565b908152602001604051809103902060009054906101000a900460ff16156110ca576040517f08c379a00000000000000000000000000000000000000000000000000000000081526004016110c1906117b1565b60405180910390fd5b6110f67f0660c649b6dbbc6e896c7331b3a455e72fbf3a6aa5c57957839c5b4a2ebdf8ea60001b6114df565b6111227fe10bd941bf2ed68cae8771dedf0971535f9c55af26b6b81a96a15a29a9bb2e4660001b6114df565b61114e7f3085e8eccecc37a33dcc7a2595e7d43fd385de880136440fe9810b1e7fab05f760001b6114df565b600061117c7f054c7b30f4e4e64f7ec238a18bac6842cd08cb0da9bba7af46730b3c5131103360001b6114df565b6111a87fa66208031d1aa7f5a3c63b7be783bf56f66c8b2f650cfbc5e3d8d45b41e4530960001b6114df565b816040013582602001351115611245576111e47f65e41fece3caa9e75b28ad5a251f0f46f8268a1dac9173023d4a2bf51372bbaf60001b6114df565b6112107f81fa78e1c6a2b9f21d64cbdf7be8b499a0936de88469ea2c3ed14fa5a7983fd960001b6114df565b61123c7f5f55d6bad4bb374b3d2e39e40cf8b5e591ea71a12cffcb0ae03a0fd7689af72360001b6114df565b600190506112cd565b6112707e022f038dbe0de60e8ed05c5fc612c8a66ea317e289b2498610094fca4b01ef60001b6114df565b61129c7f8635c3f7e770c79e270763ba740fb9c9fea472b4cdcf0f20292c44256d40142d60001b6114df565b6112c87f23ae61e523e60515e626a43e9aca3eebf52bf766c4db67847925efcc4fa5355f60001b6114df565b600290505b6112f97f5b79847692e66795d77bc9f2b14f420c9a801ae6f9b8ac364023b6a83eb01c3760001b6114df565b6113257f8fb7fe27abc21a7b0df36d927b5237856608ec571bd14d8782eef742b662150a60001b6114df565b81606001602081019061133891906115fc565b600160008360ff1660ff16815260200190815260200160002060008282829054906101000a900460ff1661136c9190611990565b92506101000a81548160ff021916908360ff1602179055506113b07f0a4941acc080287b5ceead5ee85b44ea2ebff0eab4b7b03b5d54823a3221389760001b6114df565b6113dc7f3665334a6f14e53d08b359fbf0f9dbd5ab41fa602b0043523e10b6adfdf8f8e460001b6114df565b600160028380600001906113f091906118c7565b6040516113fe929190611762565b908152602001604051809103902060006101000a81548160ff02191690831515021790555061144f7f3281404401c957caffa7b175bd9899124f8117ee48c7e75727dc61121d7cb5aa60001b6114df565b61147b7fc641e1315c8c1b21ffe6cb18c7e33e8c4e3648d2bf9725a9b010560e8e3ae62160001b6114df565b7fa2e71fe38f1afa3762cf9d2ea7bb6a4d272a90fd6f9392f3acedd3b542046b46818360600160208101906114b091906115fc565b8480600001906114c091906118c7565b6040516114d09493929190611887565b60405180910390a15050565b50565b50565b60006114f56114f084611943565b61191e565b90508281526020810184848401111561150d57600080fd5b611518848285611a24565b509392505050565b600082601f83011261153157600080fd5b81356115418482602086016114e2565b91505092915050565b60006080828403121561155c57600080fd5b81905092915050565b60008135905061157481611bc6565b92915050565b60006020828403121561158c57600080fd5b600082013567ffffffffffffffff8111156115a657600080fd5b6115b284828501611520565b91505092915050565b6000602082840312156115cd57600080fd5b600082013567ffffffffffffffff8111156115e757600080fd5b6115f38482850161154a565b91505092915050565b60006020828403121561160e57600080fd5b600061161c84828501611565565b91505092915050565b61162e816119c7565b82525050565b61163d816119d9565b82525050565b600061164f8385611974565b935061165c838584611a24565b61166583611ac2565b840190509392505050565b600061167c8385611985565b9350611689838584611a24565b82840190509392505050565b60006116a2602883611974565b91506116ad82611ad3565b604082019050919050565b60006116c5601e83611974565b91506116d082611b22565b602082019050919050565b60006116e8601583611974565b91506116f382611b4b565b602082019050919050565b600061170b602083611974565b915061171682611b74565b602082019050919050565b600061172e601883611974565b915061173982611b9d565b602082019050919050565b61174d81611a12565b82525050565b61175c81611a05565b82525050565b600061176f828486611670565b91508190509392505050565b60006020820190506117906000830184611625565b92915050565b60006020820190506117ab6000830184611634565b92915050565b600060208201905081810360008301526117ca81611695565b9050919050565b600060208201905081810360008301526117ea816116b8565b9050919050565b6000602082019050818103600083015261180a816116db565b9050919050565b6000602082019050818103600083015261182a816116fe565b9050919050565b6000602082019050818103600083015261184a81611721565b9050919050565b60006020820190506118666000830184611744565b92915050565b60006020820190506118816000830184611753565b92915050565b600060608201905061189c6000830187611753565b6118a96020830186611753565b81810360408301526118bc818486611643565b905095945050505050565b600080833560016020038436030381126118e057600080fd5b80840192508235915067ffffffffffffffff8211156118fe57600080fd5b60208301925060018202360383131561191657600080fd5b509250929050565b6000611928611939565b90506119348282611a33565b919050565b6000604051905090565b600067ffffffffffffffff82111561195e5761195d611a93565b5b61196782611ac2565b9050602081019050919050565b600082825260208201905092915050565b600081905092915050565b600061199b82611a05565b91506119a683611a05565b92508260ff038211156119bc576119bb611a64565b5b828201905092915050565b60006119d2826119e5565b9050919050565b60008115159050919050565b600073ffffffffffffffffffffffffffffffffffffffff82169050919050565b600060ff82169050919050565b6000611a1d82611a05565b9050919050565b82818337600083830152505050565b611a3c82611ac2565b810181811067ffffffffffffffff82111715611a5b57611a5a611a93565b5b80604052505050565b7f4e487b7100000000000000000000000000000000000000000000000000000000600052601160045260246000fd5b7f4e487b7100000000000000000000000000000000000000000000000000000000600052604160045260246000fd5b6000601f19601f8301169050919050565b7f5468697320737461746520726573756c742077617320616c726561647920737560008201527f626d697474656421000000000000000000000000000000000000000000000000602082015250565b7f54686520656c656374696f6e2068617320656e64656420616c72656164790000600082015250565b7f54686572652063616e6e6f742062652061207469650000000000000000000000600082015250565b7f537461746573206d7573742068617665206174206c6561737420312073656174600082015250565b7f4e6f7420696e766f6b656420627920746865206f776e65720000000000000000600082015250565b611bcf81611a05565b8114611bda57600080fd5b5056fea2646970667358221220236daf179df37a160e38ef45da242fcb4b692f0ebc4c56f728e284aab26ea60d64736f6c63430008040033",
          "opcodes": "PUSH1 0x80 PUSH1 0x40 MSTORE CALLVALUE DUP1 ISZERO PUSH2 0x10 JUMPI PUSH1 0x0 DUP1 REVERT JUMPDEST POP PUSH2 0x43 PUSH32 0xE5BD0F4CF20A27F86802D5273934A768649C0C9D73A958F5B31DAFAB231C59D1 PUSH1 0x0 SHL PUSH2 0xEC PUSH1 0x20 SHL PUSH1 0x20 SHR JUMP JUMPDEST PUSH2 0x75 PUSH32 0x27440CC580482BFA00943011535D4266B2603CC988065CB7A419EA258965C6D2 PUSH1 0x0 SHL PUSH2 0xEC PUSH1 0x20 SHL PUSH1 0x20 SHR JUMP JUMPDEST PUSH2 0xA7 PUSH32 0x2BAEB31578DA9782EA85C52CADC05C5B8BF68BF560ABE3156286D04D26924578 PUSH1 0x0 SHL PUSH2 0xEC PUSH1 0x20 SHL PUSH1 0x20 SHR JUMP JUMPDEST CALLER PUSH1 0x0 DUP1 PUSH2 0x100 EXP DUP2 SLOAD DUP2 PUSH20 0xFFFFFFFFFFFFFFFFFFFFFFFFFFFFFFFFFFFFFFFF MUL NOT AND SWAP1 DUP4 PUSH20 0xFFFFFFFFFFFFFFFFFFFFFFFFFFFFFFFFFFFFFFFF AND MUL OR SWAP1 SSTORE POP PUSH2 0xEF JUMP JUMPDEST POP JUMP JUMPDEST PUSH2 0x1C13 DUP1 PUSH3 0xFF PUSH1 0x0 CODECOPY PUSH1 0x0 RETURN INVALID PUSH1 0x80 PUSH1 0x40 MSTORE CALLVALUE DUP1 ISZERO PUSH2 0x10 JUMPI PUSH1 0x0 DUP1 REVERT JUMPDEST POP PUSH1 0x4 CALLDATASIZE LT PUSH2 0x9E JUMPI PUSH1 0x0 CALLDATALOAD PUSH1 0xE0 SHR DUP1 PUSH4 0x893D20E8 GT PUSH2 0x66 JUMPI DUP1 PUSH4 0x893D20E8 EQ PUSH2 0x149 JUMPI DUP1 PUSH4 0x8DA5CB5B EQ PUSH2 0x167 JUMPI DUP1 PUSH4 0xAC4BD53A EQ PUSH2 0x185 JUMPI DUP1 PUSH4 0xC94CA9E3 EQ PUSH2 0x1A3 JUMPI DUP1 PUSH4 0xE494A883 EQ PUSH2 0x1C1 JUMPI PUSH2 0x9E JUMP JUMPDEST DUP1 PUSH4 0x2D78D8E5 EQ PUSH2 0xA3 JUMPI DUP1 PUSH4 0x37AD98EC EQ PUSH2 0xC1 JUMPI DUP1 PUSH4 0x59F78468 EQ PUSH2 0xF1 JUMPI DUP1 PUSH4 0x69B36BD4 EQ PUSH2 0xFB JUMPI DUP1 PUSH4 0x713D87C5 EQ PUSH2 0x119 JUMPI JUMPDEST PUSH1 0x0 DUP1 REVERT JUMPDEST PUSH2 0xAB PUSH2 0x1DD JUMP JUMPDEST PUSH1 0x40 MLOAD PUSH2 0xB8 SWAP2 SWAP1 PUSH2 0x186C JUMP JUMPDEST PUSH1 0x40 MLOAD DUP1 SWAP2 SUB SWAP1 RETURN JUMPDEST PUSH2 0xDB PUSH1 0x4 DUP1 CALLDATASIZE SUB DUP2 ADD SWAP1 PUSH2 0xD6 SWAP2 SWAP1 PUSH2 0x157A JUMP JUMPDEST PUSH2 0x1E2 JUMP JUMPDEST PUSH1 0x40 MLOAD PUSH2 0xE8 SWAP2 SWAP1 PUSH2 0x1796 JUMP JUMPDEST PUSH1 0x40 MLOAD DUP1 SWAP2 SUB SWAP1 RETURN JUMPDEST PUSH2 0xF9 PUSH2 0x218 JUMP JUMPDEST STOP JUMPDEST PUSH2 0x103 PUSH2 0x63D JUMP JUMPDEST PUSH1 0x40 MLOAD PUSH2 0x110 SWAP2 SWAP1 PUSH2 0x186C JUMP JUMPDEST PUSH1 0x40 MLOAD DUP1 SWAP2 SUB SWAP1 RETURN JUMPDEST PUSH2 0x133 PUSH1 0x4 DUP1 CALLDATASIZE SUB DUP2 ADD SWAP1 PUSH2 0x12E SWAP2 SWAP1 PUSH2 0x15FC JUMP JUMPDEST PUSH2 0x642 JUMP JUMPDEST PUSH1 0x40 MLOAD PUSH2 0x140 SWAP2 SWAP1 PUSH2 0x186C JUMP JUMPDEST PUSH1 0x40 MLOAD DUP1 SWAP2 SUB SWAP1 RETURN JUMPDEST PUSH2 0x151 PUSH2 0x662 JUMP JUMPDEST PUSH1 0x40 MLOAD PUSH2 0x15E SWAP2 SWAP1 PUSH2 0x177B JUMP JUMPDEST PUSH1 0x40 MLOAD DUP1 SWAP2 SUB SWAP1 RETURN JUMPDEST PUSH2 0x16F PUSH2 0x70E JUMP JUMPDEST PUSH1 0x40 MLOAD PUSH2 0x17C SWAP2 SWAP1 PUSH2 0x177B JUMP JUMPDEST PUSH1 0x40 MLOAD DUP1 SWAP2 SUB SWAP1 RETURN JUMPDEST PUSH2 0x18D PUSH2 0x732 JUMP JUMPDEST PUSH1 0x40 MLOAD PUSH2 0x19A SWAP2 SWAP1 PUSH2 0x186C JUMP JUMPDEST PUSH1 0x40 MLOAD DUP1 SWAP2 SUB SWAP1 RETURN JUMPDEST PUSH2 0x1AB PUSH2 0xA9A JUMP JUMPDEST PUSH1 0x40 MLOAD PUSH2 0x1B8 SWAP2 SWAP1 PUSH2 0x1796 JUMP JUMPDEST PUSH1 0x40 MLOAD DUP1 SWAP2 SUB SWAP1 RETURN JUMPDEST PUSH2 0x1DB PUSH1 0x4 DUP1 CALLDATASIZE SUB DUP2 ADD SWAP1 PUSH2 0x1D6 SWAP2 SWAP1 PUSH2 0x15BB JUMP JUMPDEST PUSH2 0xAAD JUMP JUMPDEST STOP JUMPDEST PUSH1 0x2 DUP2 JUMP JUMPDEST PUSH1 0x2 DUP2 DUP1 MLOAD PUSH1 0x20 DUP2 ADD DUP3 ADD DUP1 MLOAD DUP5 DUP3 MSTORE PUSH1 0x20 DUP4 ADD PUSH1 0x20 DUP6 ADD KECCAK256 DUP2 DUP4 MSTORE DUP1 SWAP6 POP POP POP POP POP POP PUSH1 0x0 SWAP2 POP SLOAD SWAP1 PUSH2 0x100 EXP SWAP1 DIV PUSH1 0xFF AND DUP2 JUMP JUMPDEST PUSH2 0x244 PUSH32 0xEA68C6E71F931550975AD682A4460424A0AB6F69E4667DBC600202C894A4A348 PUSH1 0x0 SHL PUSH2 0x14DC JUMP JUMPDEST PUSH2 0x270 PUSH32 0x31ECC15382B4E82889F26C2D68C66B561B14E864F08AC2FBFA71BB019B7D2A3C PUSH1 0x0 SHL PUSH2 0x14DC JUMP JUMPDEST PUSH2 0x29C PUSH32 0x81ECFCBA80DE40BBE5D383F44708112820B2F8D3A50E207F4E0C8100D1756153 PUSH1 0x0 SHL PUSH2 0x14DC JUMP JUMPDEST PUSH2 0x2C8 PUSH32 0xD15F9D586E68DCE4FF85DE1C2B5726D5547A7B99D074D9C11DB87FAE3F0337EE PUSH1 0x0 SHL PUSH2 0x14DC JUMP JUMPDEST CALLER PUSH20 0xFFFFFFFFFFFFFFFFFFFFFFFFFFFFFFFFFFFFFFFF AND PUSH1 0x0 DUP1 SLOAD SWAP1 PUSH2 0x100 EXP SWAP1 DIV PUSH20 0xFFFFFFFFFFFFFFFFFFFFFFFFFFFFFFFFFFFFFFFF AND PUSH20 0xFFFFFFFFFFFFFFFFFFFFFFFFFFFFFFFFFFFFFFFF AND EQ PUSH2 0x356 JUMPI PUSH1 0x40 MLOAD PUSH32 0x8C379A000000000000000000000000000000000000000000000000000000000 DUP2 MSTORE PUSH1 0x4 ADD PUSH2 0x34D SWAP1 PUSH2 0x1831 JUMP JUMPDEST PUSH1 0x40 MLOAD DUP1 SWAP2 SUB SWAP1 REVERT JUMPDEST PUSH2 0x382 PUSH32 0xCC8F782B97859D38A3AC79C7DC02C5F1AFB0F9D7AC61823BBD0D113D4317EE9F PUSH1 0x0 SHL PUSH2 0x14DC JUMP JUMPDEST PUSH2 0x3AE PUSH32 0x4E62F73DBBD593DA3C0765B692FAEF2294884AA74E7DEA5391A555261B58056C PUSH1 0x0 SHL PUSH2 0x14DC JUMP JUMPDEST PUSH2 0x3DA PUSH32 0x4A20351ED126EBCE4B672B731014F9ACC834CFBFCAC29E985FA638C5A87A3384 PUSH1 0x0 SHL PUSH2 0x14DF JUMP JUMPDEST PUSH2 0x406 PUSH32 0xA73E64DE2A26DABD68777B95E2D6916F5C49866B4430A25514D0B1E7F32BFA99 PUSH1 0x0 SHL PUSH2 0x14DF JUMP JUMPDEST PUSH2 0x432 PUSH32 0x50D05DCB409D001BAD2C0F2BD08729398B47B3DB76F8B0229046306836229A0F PUSH1 0x0 SHL PUSH2 0x14DF JUMP JUMPDEST PUSH2 0x45E PUSH32 0x911D658C2DC14BCA9477E93CE2775D4DD7FAD3EB39EB02F849DD01922E6E8E36 PUSH1 0x0 SHL PUSH2 0x14DF JUMP JUMPDEST PUSH1 0x0 PUSH1 0x14 SWAP1 SLOAD SWAP1 PUSH2 0x100 EXP SWAP1 DIV PUSH1 0xFF AND ISZERO PUSH2 0x4AE JUMPI PUSH1 0x40 MLOAD PUSH32 0x8C379A000000000000000000000000000000000000000000000000000000000 DUP2 MSTORE PUSH1 0x4 ADD PUSH2 0x4A5 SWAP1 PUSH2 0x17D1 JUMP JUMPDEST PUSH1 0x40 MLOAD DUP1 SWAP2 SUB SWAP1 REVERT JUMPDEST PUSH2 0x4DA PUSH32 0x99B6752D35EB8093B526E8CA9083BF7498ACE4C3CE5F4090BDED0D6D9D803BAD PUSH1 0x0 SHL PUSH2 0x14DF JUMP JUMPDEST PUSH2 0x506 PUSH32 0x2050A51D722792350A0628A8B1AEEF5BAEDA39B34C61DE5F06E78ADE680B5824 PUSH1 0x0 SHL PUSH2 0x14DF JUMP JUMPDEST PUSH2 0x532 PUSH32 0x634E07BE9A47BC5B762E1B56BAF6D3DC01337ED3F1A76EF348A8AA25039EC524 PUSH1 0x0 SHL PUSH2 0x14DF JUMP JUMPDEST PUSH2 0x55E PUSH32 0x14F2A5F33C1921245810A99F953182F8163134268DC39683F38BC483154933AE PUSH1 0x0 SHL PUSH2 0x14DF JUMP JUMPDEST PUSH2 0x58A PUSH32 0x85B7EA7101A0ECCCD1718E9718BE3701541C648CCA3CB2B70FC036A17236EB03 PUSH1 0x0 SHL PUSH2 0x14DF JUMP JUMPDEST PUSH1 0x1 PUSH1 0x0 PUSH1 0x14 PUSH2 0x100 EXP DUP2 SLOAD DUP2 PUSH1 0xFF MUL NOT AND SWAP1 DUP4 ISZERO ISZERO MUL OR SWAP1 SSTORE POP PUSH2 0x5D1 PUSH32 0x40912A952524E4B4AB6DAE934214EDEE307FBA207CFAFAD80A4DB086BD8DF914 PUSH1 0x0 SHL PUSH2 0x14DF JUMP JUMPDEST PUSH2 0x5FD PUSH32 0x8C96E115267C3D3454D69BCF84DEE9F4DD1FF072760E41A3CE0FE6A0DCCE998F PUSH1 0x0 SHL PUSH2 0x14DF JUMP JUMPDEST PUSH32 0xAACB23683EC1A0E9B52F9A6264EDF58AD322AC62079D65EA7363A2D400F439F4 PUSH2 0x626 PUSH2 0x732 JUMP JUMPDEST PUSH1 0x40 MLOAD PUSH2 0x633 SWAP2 SWAP1 PUSH2 0x1851 JUMP JUMPDEST PUSH1 0x40 MLOAD DUP1 SWAP2 SUB SWAP1 LOG1 JUMP JUMPDEST PUSH1 0x1 DUP2 JUMP JUMPDEST PUSH1 0x1 PUSH1 0x20 MSTORE DUP1 PUSH1 0x0 MSTORE PUSH1 0x40 PUSH1 0x0 KECCAK256 PUSH1 0x0 SWAP2 POP SLOAD SWAP1 PUSH2 0x100 EXP SWAP1 DIV PUSH1 0xFF AND DUP2 JUMP JUMPDEST PUSH1 0x0 PUSH2 0x690 PUSH32 0x659780324D7853406323093A03DE19279053CBFFBD8305F12A81E15D20080E94 PUSH1 0x0 SHL PUSH2 0x14DF JUMP JUMPDEST PUSH2 0x6BC PUSH32 0x31F6BF70172AC4E39B8CE6E7E48C389673822DE4B71A36ED42F292AF31B873C5 PUSH1 0x0 SHL PUSH2 0x14DF JUMP JUMPDEST PUSH2 0x6E8 PUSH32 0xD64D34B8D6EAC3705DBA8E197D607296CE82A31B94A9391308A6675AC2FBFF91 PUSH1 0x0 SHL PUSH2 0x14DF JUMP JUMPDEST PUSH1 0x0 DUP1 SLOAD SWAP1 PUSH2 0x100 EXP SWAP1 DIV PUSH20 0xFFFFFFFFFFFFFFFFFFFFFFFFFFFFFFFFFFFFFFFF AND SWAP1 POP SWAP1 JUMP JUMPDEST PUSH1 0x0 DUP1 SLOAD SWAP1 PUSH2 0x100 EXP SWAP1 DIV PUSH20 0xFFFFFFFFFFFFFFFFFFFFFFFFFFFFFFFFFFFFFFFF AND DUP2 JUMP JUMPDEST PUSH1 0x0 PUSH2 0x760 PUSH32 0xD03F5E7F0C552A9CA03AFFC6A3378B9725BDCC393F6F62D0BD54D9D8AC52A208 PUSH1 0x0 SHL PUSH2 0x14DF JUMP JUMPDEST PUSH2 0x78C PUSH32 0x3481A81B5D15832FBA45F12ACEAD4B8EF74153498335AA209A7DEDE09C70571F PUSH1 0x0 SHL PUSH2 0x14DF JUMP JUMPDEST PUSH2 0x7B8 PUSH32 0xC024F09B39D49EB37E7694452F8A01130DF6FEE7C4CEC3BB37D3EAEFFB1AC8AC PUSH1 0x0 SHL PUSH2 0x14DF JUMP JUMPDEST PUSH1 0x1 PUSH1 0x0 PUSH1 0x2 PUSH1 0xFF AND PUSH1 0xFF AND DUP2 MSTORE PUSH1 0x20 ADD SWAP1 DUP2 MSTORE PUSH1 0x20 ADD PUSH1 0x0 KECCAK256 PUSH1 0x0 SWAP1 SLOAD SWAP1 PUSH2 0x100 EXP SWAP1 DIV PUSH1 0xFF AND PUSH1 0xFF AND PUSH1 0x1 PUSH1 0x0 PUSH1 0x1 PUSH1 0xFF AND PUSH1 0xFF AND DUP2 MSTORE PUSH1 0x20 ADD SWAP1 DUP2 MSTORE PUSH1 0x20 ADD PUSH1 0x0 KECCAK256 PUSH1 0x0 SWAP1 SLOAD SWAP1 PUSH2 0x100 EXP SWAP1 DIV PUSH1 0xFF AND PUSH1 0xFF AND GT ISZERO PUSH2 0x8A1 JUMPI PUSH2 0x840 PUSH32 0xD8ECF95801E8E17323E2648892184CE64D758085CE22F48B6C3AC0BB292ABC23 PUSH1 0x0 SHL PUSH2 0x14DF JUMP JUMPDEST PUSH2 0x86C PUSH32 0x5E3781C1756814E89D446618C4B0EDB998C4674E2E858B53ADB48299CC8C43EA PUSH1 0x0 SHL PUSH2 0x14DF JUMP JUMPDEST PUSH2 0x898 PUSH32 0xEE11560920388221C858BD40AA07CBA9BBE15E5E3E8E468269C8D056EE6D5D45 PUSH1 0x0 SHL PUSH2 0x14DF JUMP JUMPDEST PUSH1 0x1 SWAP1 POP PUSH2 0xA97 JUMP JUMPDEST PUSH2 0x8CD PUSH32 0x145AF536F381BF4E2271D204451C95CC2F1AD496C8E6AFDCBFBD5894F4EA4CBB PUSH1 0x0 SHL PUSH2 0x14DF JUMP JUMPDEST PUSH2 0x8F9 PUSH32 0x73893F50C7AB751C68C3537B7CC6D88E56889894976F2C76221A352251F65335 PUSH1 0x0 SHL PUSH2 0x14DF JUMP JUMPDEST PUSH2 0x925 PUSH32 0x1C50B1E69A80060ED4CDC9215C09FCCE420D947333774B32AF13AC63E7990A51 PUSH1 0x0 SHL PUSH2 0x14DF JUMP JUMPDEST PUSH1 0x1 PUSH1 0x0 PUSH1 0x1 PUSH1 0xFF AND PUSH1 0xFF AND DUP2 MSTORE PUSH1 0x20 ADD SWAP1 DUP2 MSTORE PUSH1 0x20 ADD PUSH1 0x0 KECCAK256 PUSH1 0x0 SWAP1 SLOAD SWAP1 PUSH2 0x100 EXP SWAP1 DIV PUSH1 0xFF AND PUSH1 0xFF AND PUSH1 0x1 PUSH1 0x0 PUSH1 0x2 PUSH1 0xFF AND PUSH1 0xFF AND DUP2 MSTORE PUSH1 0x20 ADD SWAP1 DUP2 MSTORE PUSH1 0x20 ADD PUSH1 0x0 KECCAK256 PUSH1 0x0 SWAP1 SLOAD SWAP1 PUSH2 0x100 EXP SWAP1 DIV PUSH1 0xFF AND PUSH1 0xFF AND GT ISZERO PUSH2 0xA0E JUMPI PUSH2 0x9AD PUSH32 0x6D119DBA1E5C6D9789FAFFD58D136EA6DF6242E9383CA5D4E7F4FAFCFFBDE348 PUSH1 0x0 SHL PUSH2 0x14DF JUMP JUMPDEST PUSH2 0x9D9 PUSH32 0xE57E7F2B82961D8932CB9FC114C60365E06BAF1B8D5C56DFF2D43A45481607FB PUSH1 0x0 SHL PUSH2 0x14DF JUMP JUMPDEST PUSH2 0xA05 PUSH32 0xA3779270FA7D8A0521857C6E2AB72336A591B9AC254369F1EB27744DA97F42E0 PUSH1 0x0 SHL PUSH2 0x14DF JUMP JUMPDEST PUSH1 0x2 SWAP1 POP PUSH2 0xA97 JUMP JUMPDEST PUSH2 0xA3A PUSH32 0x3AB63208CAAC1C37DAB7D1E0A0690ED6119E016E5FE2A0DED26F43C27750FE9E PUSH1 0x0 SHL PUSH2 0x14DF JUMP JUMPDEST PUSH2 0xA66 PUSH32 0x7A5DBF8E8C8BCA5C5832E71838A2AECEF47A1266060D4B6A3B81930BFC208C49 PUSH1 0x0 SHL PUSH2 0x14DF JUMP JUMPDEST PUSH2 0xA92 PUSH32 0x80DD3697DA1F303B78103C1329ACEC1E7EB9C0711844EB6A8EAC3B62FFC6B7D4 PUSH1 0x0 SHL PUSH2 0x14DF JUMP JUMPDEST PUSH1 0x0 SWAP1 POP JUMPDEST SWAP1 JUMP JUMPDEST PUSH1 0x0 PUSH1 0x14 SWAP1 SLOAD SWAP1 PUSH2 0x100 EXP SWAP1 DIV PUSH1 0xFF AND DUP2 JUMP JUMPDEST PUSH2 0xAD9 PUSH32 0xEA68C6E71F931550975AD682A4460424A0AB6F69E4667DBC600202C894A4A348 PUSH1 0x0 SHL PUSH2 0x14DC JUMP JUMPDEST PUSH2 0xB05 PUSH32 0x31ECC15382B4E82889F26C2D68C66B561B14E864F08AC2FBFA71BB019B7D2A3C PUSH1 0x0 SHL PUSH2 0x14DC JUMP JUMPDEST PUSH2 0xB31 PUSH32 0x81ECFCBA80DE40BBE5D383F44708112820B2F8D3A50E207F4E0C8100D1756153 PUSH1 0x0 SHL PUSH2 0x14DC JUMP JUMPDEST PUSH2 0xB5D PUSH32 0xD15F9D586E68DCE4FF85DE1C2B5726D5547A7B99D074D9C11DB87FAE3F0337EE PUSH1 0x0 SHL PUSH2 0x14DC JUMP JUMPDEST CALLER PUSH20 0xFFFFFFFFFFFFFFFFFFFFFFFFFFFFFFFFFFFFFFFF AND PUSH1 0x0 DUP1 SLOAD SWAP1 PUSH2 0x100 EXP SWAP1 DIV PUSH20 0xFFFFFFFFFFFFFFFFFFFFFFFFFFFFFFFFFFFFFFFF AND PUSH20 0xFFFFFFFFFFFFFFFFFFFFFFFFFFFFFFFFFFFFFFFF AND EQ PUSH2 0xBEB JUMPI PUSH1 0x40 MLOAD PUSH32 0x8C379A000000000000000000000000000000000000000000000000000000000 DUP2 MSTORE PUSH1 0x4 ADD PUSH2 0xBE2 SWAP1 PUSH2 0x1831 JUMP JUMPDEST PUSH1 0x40 MLOAD DUP1 SWAP2 SUB SWAP1 REVERT JUMPDEST PUSH2 0xC17 PUSH32 0xCC8F782B97859D38A3AC79C7DC02C5F1AFB0F9D7AC61823BBD0D113D4317EE9F PUSH1 0x0 SHL PUSH2 0x14DC JUMP JUMPDEST PUSH2 0xC43 PUSH32 0x4E62F73DBBD593DA3C0765B692FAEF2294884AA74E7DEA5391A555261B58056C PUSH1 0x0 SHL PUSH2 0x14DC JUMP JUMPDEST PUSH2 0xC6F PUSH32 0x4A20351ED126EBCE4B672B731014F9ACC834CFBFCAC29E985FA638C5A87A3384 PUSH1 0x0 SHL PUSH2 0x14DF JUMP JUMPDEST PUSH2 0xC9B PUSH32 0xA73E64DE2A26DABD68777B95E2D6916F5C49866B4430A25514D0B1E7F32BFA99 PUSH1 0x0 SHL PUSH2 0x14DF JUMP JUMPDEST PUSH2 0xCC7 PUSH32 0x50D05DCB409D001BAD2C0F2BD08729398B47B3DB76F8B0229046306836229A0F PUSH1 0x0 SHL PUSH2 0x14DF JUMP JUMPDEST PUSH2 0xCF3 PUSH32 0x911D658C2DC14BCA9477E93CE2775D4DD7FAD3EB39EB02F849DD01922E6E8E36 PUSH1 0x0 SHL PUSH2 0x14DF JUMP JUMPDEST PUSH1 0x0 PUSH1 0x14 SWAP1 SLOAD SWAP1 PUSH2 0x100 EXP SWAP1 DIV PUSH1 0xFF AND ISZERO PUSH2 0xD43 JUMPI PUSH1 0x40 MLOAD PUSH32 0x8C379A000000000000000000000000000000000000000000000000000000000 DUP2 MSTORE PUSH1 0x4 ADD PUSH2 0xD3A SWAP1 PUSH2 0x17D1 JUMP JUMPDEST PUSH1 0x40 MLOAD DUP1 SWAP2 SUB SWAP1 REVERT JUMPDEST PUSH2 0xD6F PUSH32 0x99B6752D35EB8093B526E8CA9083BF7498ACE4C3CE5F4090BDED0D6D9D803BAD PUSH1 0x0 SHL PUSH2 0x14DF JUMP JUMPDEST PUSH2 0xD9B PUSH32 0x2050A51D722792350A0628A8B1AEEF5BAEDA39B34C61DE5F06E78ADE680B5824 PUSH1 0x0 SHL PUSH2 0x14DF JUMP JUMPDEST PUSH2 0xDC7 PUSH32 0x24FBA1B926E183F304C8A7A51801B94A1DA9B4655D2DFBD5E4DF6EE9B583A64B PUSH1 0x0 SHL PUSH2 0x14DF JUMP JUMPDEST PUSH2 0xDF3 PUSH32 0x540862F44D9F69EE8A11EDEF385BF8E719BF0B51FBEF624237B45930865CEC6B PUSH1 0x0 SHL PUSH2 0x14DF JUMP JUMPDEST PUSH2 0xE1F PUSH32 0x7E99751849CB7733888FA3F69F7D2851FA9485A90A81BD072E0718DC8BAA5891 PUSH1 0x0 SHL PUSH2 0x14DF JUMP JUMPDEST PUSH2 0xE4B PUSH32 0xA6BCBBFC685AAA3BC3D739D239F577013D53BF5B748158B10E7D6D314B86CB37 PUSH1 0x0 SHL PUSH2 0x14DF JUMP JUMPDEST PUSH1 0x0 DUP2 PUSH1 0x60 ADD PUSH1 0x20 DUP2 ADD SWAP1 PUSH2 0xE60 SWAP2 SWAP1 PUSH2 0x15FC JUMP JUMPDEST PUSH1 0xFF AND GT PUSH2 0xEA3 JUMPI PUSH1 0x40 MLOAD PUSH32 0x8C379A000000000000000000000000000000000000000000000000000000000 DUP2 MSTORE PUSH1 0x4 ADD PUSH2 0xE9A SWAP1 PUSH2 0x1811 JUMP JUMPDEST PUSH1 0x40 MLOAD DUP1 SWAP2 SUB SWAP1 REVERT JUMPDEST PUSH2 0xECF PUSH32 0x76E3A7F4AD120EC6250C019B3C8FF5D95983225FAD6C64AFDEB8B7C94CDBA384 PUSH1 0x0 SHL PUSH2 0x14DF JUMP JUMPDEST PUSH2 0xEFB PUSH32 0x5074E8053992DF50D12DFD6D0B976B1CAC9E0DE5DBEDF312F0B493A89BB6CAEB PUSH1 0x0 SHL PUSH2 0x14DF JUMP JUMPDEST PUSH2 0xF27 PUSH32 0xF1BEA036B0CF0C8A88CD71C92ABBA2E3F16A5A78D24ECFBC7E00DA5C31340F66 PUSH1 0x0 SHL PUSH2 0x14DF JUMP JUMPDEST PUSH2 0xF53 PUSH32 0xD7EBD290C013E41E34B0DCB6F15FAD945FE5CD715ACA3B324D38A543C3204DF PUSH1 0x0 SHL PUSH2 0x14DF JUMP JUMPDEST DUP1 PUSH1 0x40 ADD CALLDATALOAD DUP2 PUSH1 0x20 ADD CALLDATALOAD EQ ISZERO PUSH2 0xF9E JUMPI PUSH1 0x40 MLOAD PUSH32 0x8C379A000000000000000000000000000000000000000000000000000000000 DUP2 MSTORE PUSH1 0x4 ADD PUSH2 0xF95 SWAP1 PUSH2 0x17F1 JUMP JUMPDEST PUSH1 0x40 MLOAD DUP1 SWAP2 SUB SWAP1 REVERT JUMPDEST PUSH2 0xFCA PUSH32 0x7173EBDA9660F927CFB6D1285AAD3BB33AB76794908E46CEBE3FF0C42CF71076 PUSH1 0x0 SHL PUSH2 0x14DF JUMP JUMPDEST PUSH2 0xFF6 PUSH32 0xB846279D1D81FFD1041E29AE9C7B25F1C6609886EA5F9863AE5D174E1A26736C PUSH1 0x0 SHL PUSH2 0x14DF JUMP JUMPDEST PUSH2 0x1022 PUSH32 0xCB422543103C57E173E9F9BE7CA098599033D51C3960B03DE3A8030EC5265155 PUSH1 0x0 SHL PUSH2 0x14DF JUMP JUMPDEST PUSH2 0x104E PUSH32 0x9D0D1ADABB9E9F4316E3AD381EE8C473EFD2AB7DDB55BFE17E7AEFB8E6671DC9 PUSH1 0x0 SHL PUSH2 0x14DF JUMP JUMPDEST PUSH1 0x2 DUP2 DUP1 PUSH1 0x0 ADD SWAP1 PUSH2 0x1060 SWAP2 SWAP1 PUSH2 0x18C7 JUMP JUMPDEST PUSH1 0x40 MLOAD PUSH2 0x106E SWAP3 SWAP2 SWAP1 PUSH2 0x1762 JUMP JUMPDEST SWAP1 DUP2 MSTORE PUSH1 0x20 ADD PUSH1 0x40 MLOAD DUP1 SWAP2 SUB SWAP1 KECCAK256 PUSH1 0x0 SWAP1 SLOAD SWAP1 PUSH2 0x100 EXP SWAP1 DIV PUSH1 0xFF AND ISZERO PUSH2 0x10CA JUMPI PUSH1 0x40 MLOAD PUSH32 0x8C379A000000000000000000000000000000000000000000000000000000000 DUP2 MSTORE PUSH1 0x4 ADD PUSH2 0x10C1 SWAP1 PUSH2 0x17B1 JUMP JUMPDEST PUSH1 0x40 MLOAD DUP1 SWAP2 SUB SWAP1 REVERT JUMPDEST PUSH2 0x10F6 PUSH32 0x660C649B6DBBC6E896C7331B3A455E72FBF3A6AA5C57957839C5B4A2EBDF8EA PUSH1 0x0 SHL PUSH2 0x14DF JUMP JUMPDEST PUSH2 0x1122 PUSH32 0xE10BD941BF2ED68CAE8771DEDF0971535F9C55AF26B6B81A96A15A29A9BB2E46 PUSH1 0x0 SHL PUSH2 0x14DF JUMP JUMPDEST PUSH2 0x114E PUSH32 0x3085E8ECCECC37A33DCC7A2595E7D43FD385DE880136440FE9810B1E7FAB05F7 PUSH1 0x0 SHL PUSH2 0x14DF JUMP JUMPDEST PUSH1 0x0 PUSH2 0x117C PUSH32 0x54C7B30F4E4E64F7EC238A18BAC6842CD08CB0DA9BBA7AF46730B3C51311033 PUSH1 0x0 SHL PUSH2 0x14DF JUMP JUMPDEST PUSH2 0x11A8 PUSH32 0xA66208031D1AA7F5A3C63B7BE783BF56F66C8B2F650CFBC5E3D8D45B41E45309 PUSH1 0x0 SHL PUSH2 0x14DF JUMP JUMPDEST DUP2 PUSH1 0x40 ADD CALLDATALOAD DUP3 PUSH1 0x20 ADD CALLDATALOAD GT ISZERO PUSH2 0x1245 JUMPI PUSH2 0x11E4 PUSH32 0x65E41FECE3CAA9E75B28AD5A251F0F46F8268A1DAC9173023D4A2BF51372BBAF PUSH1 0x0 SHL PUSH2 0x14DF JUMP JUMPDEST PUSH2 0x1210 PUSH32 0x81FA78E1C6A2B9F21D64CBDF7BE8B499A0936DE88469EA2C3ED14FA5A7983FD9 PUSH1 0x0 SHL PUSH2 0x14DF JUMP JUMPDEST PUSH2 0x123C PUSH32 0x5F55D6BAD4BB374B3D2E39E40CF8B5E591EA71A12CFFCB0AE03A0FD7689AF723 PUSH1 0x0 SHL PUSH2 0x14DF JUMP JUMPDEST PUSH1 0x1 SWAP1 POP PUSH2 0x12CD JUMP JUMPDEST PUSH2 0x1270 PUSH31 0x22F038DBE0DE60E8ED05C5FC612C8A66EA317E289B2498610094FCA4B01EF PUSH1 0x0 SHL PUSH2 0x14DF JUMP JUMPDEST PUSH2 0x129C PUSH32 0x8635C3F7E770C79E270763BA740FB9C9FEA472B4CDCF0F20292C44256D40142D PUSH1 0x0 SHL PUSH2 0x14DF JUMP JUMPDEST PUSH2 0x12C8 PUSH32 0x23AE61E523E60515E626A43E9ACA3EEBF52BF766C4DB67847925EFCC4FA5355F PUSH1 0x0 SHL PUSH2 0x14DF JUMP JUMPDEST PUSH1 0x2 SWAP1 POP JUMPDEST PUSH2 0x12F9 PUSH32 0x5B79847692E66795D77BC9F2B14F420C9A801AE6F9B8AC364023B6A83EB01C37 PUSH1 0x0 SHL PUSH2 0x14DF JUMP JUMPDEST PUSH2 0x1325 PUSH32 0x8FB7FE27ABC21A7B0DF36D927B5237856608EC571BD14D8782EEF742B662150A PUSH1 0x0 SHL PUSH2 0x14DF JUMP JUMPDEST DUP2 PUSH1 0x60 ADD PUSH1 0x20 DUP2 ADD SWAP1 PUSH2 0x1338 SWAP2 SWAP1 PUSH2 0x15FC JUMP JUMPDEST PUSH1 0x1 PUSH1 0x0 DUP4 PUSH1 0xFF AND PUSH1 0xFF AND DUP2 MSTORE PUSH1 0x20 ADD SWAP1 DUP2 MSTORE PUSH1 0x20 ADD PUSH1 0x0 KECCAK256 PUSH1 0x0 DUP3 DUP3 DUP3 SWAP1 SLOAD SWAP1 PUSH2 0x100 EXP SWAP1 DIV PUSH1 0xFF AND PUSH2 0x136C SWAP2 SWAP1 PUSH2 0x1990 JUMP JUMPDEST SWAP3 POP PUSH2 0x100 EXP DUP2 SLOAD DUP2 PUSH1 0xFF MUL NOT AND SWAP1 DUP4 PUSH1 0xFF AND MUL OR SWAP1 SSTORE POP PUSH2 0x13B0 PUSH32 0xA4941ACC080287B5CEEAD5EE85B44EA2EBFF0EAB4B7B03B5D54823A32213897 PUSH1 0x0 SHL PUSH2 0x14DF JUMP JUMPDEST PUSH2 0x13DC PUSH32 0x3665334A6F14E53D08B359FBF0F9DBD5AB41FA602B0043523E10B6ADFDF8F8E4 PUSH1 0x0 SHL PUSH2 0x14DF JUMP JUMPDEST PUSH1 0x1 PUSH1 0x2 DUP4 DUP1 PUSH1 0x0 ADD SWAP1 PUSH2 0x13F0 SWAP2 SWAP1 PUSH2 0x18C7 JUMP JUMPDEST PUSH1 0x40 MLOAD PUSH2 0x13FE SWAP3 SWAP2 SWAP1 PUSH2 0x1762 JUMP JUMPDEST SWAP1 DUP2 MSTORE PUSH1 0x20 ADD PUSH1 0x40 MLOAD DUP1 SWAP2 SUB SWAP1 KECCAK256 PUSH1 0x0 PUSH2 0x100 EXP DUP2 SLOAD DUP2 PUSH1 0xFF MUL NOT AND SWAP1 DUP4 ISZERO ISZERO MUL OR SWAP1 SSTORE POP PUSH2 0x144F PUSH32 0x3281404401C957CAFFA7B175BD9899124F8117EE48C7E75727DC61121D7CB5AA PUSH1 0x0 SHL PUSH2 0x14DF JUMP JUMPDEST PUSH2 0x147B PUSH32 0xC641E1315C8C1B21FFE6CB18C7E33E8C4E3648D2BF9725A9B010560E8E3AE621 PUSH1 0x0 SHL PUSH2 0x14DF JUMP JUMPDEST PUSH32 0xA2E71FE38F1AFA3762CF9D2EA7BB6A4D272A90FD6F9392F3ACEDD3B542046B46 DUP2 DUP4 PUSH1 0x60 ADD PUSH1 0x20 DUP2 ADD SWAP1 PUSH2 0x14B0 SWAP2 SWAP1 PUSH2 0x15FC JUMP JUMPDEST DUP5 DUP1 PUSH1 0x0 ADD SWAP1 PUSH2 0x14C0 SWAP2 SWAP1 PUSH2 0x18C7 JUMP JUMPDEST PUSH1 0x40 MLOAD PUSH2 0x14D0 SWAP5 SWAP4 SWAP3 SWAP2 SWAP1 PUSH2 0x1887 JUMP JUMPDEST PUSH1 0x40 MLOAD DUP1 SWAP2 SUB SWAP1 LOG1 POP POP JUMP JUMPDEST POP JUMP JUMPDEST POP JUMP JUMPDEST PUSH1 0x0 PUSH2 0x14F5 PUSH2 0x14F0 DUP5 PUSH2 0x1943 JUMP JUMPDEST PUSH2 0x191E JUMP JUMPDEST SWAP1 POP DUP3 DUP2 MSTORE PUSH1 0x20 DUP2 ADD DUP5 DUP5 DUP5 ADD GT ISZERO PUSH2 0x150D JUMPI PUSH1 0x0 DUP1 REVERT JUMPDEST PUSH2 0x1518 DUP5 DUP3 DUP6 PUSH2 0x1A24 JUMP JUMPDEST POP SWAP4 SWAP3 POP POP POP JUMP JUMPDEST PUSH1 0x0 DUP3 PUSH1 0x1F DUP4 ADD SLT PUSH2 0x1531 JUMPI PUSH1 0x0 DUP1 REVERT JUMPDEST DUP2 CALLDATALOAD PUSH2 0x1541 DUP5 DUP3 PUSH1 0x20 DUP7 ADD PUSH2 0x14E2 JUMP JUMPDEST SWAP2 POP POP SWAP3 SWAP2 POP POP JUMP JUMPDEST PUSH1 0x0 PUSH1 0x80 DUP3 DUP5 SUB SLT ISZERO PUSH2 0x155C JUMPI PUSH1 0x0 DUP1 REVERT JUMPDEST DUP2 SWAP1 POP SWAP3 SWAP2 POP POP JUMP JUMPDEST PUSH1 0x0 DUP2 CALLDATALOAD SWAP1 POP PUSH2 0x1574 DUP2 PUSH2 0x1BC6 JUMP JUMPDEST SWAP3 SWAP2 POP POP JUMP JUMPDEST PUSH1 0x0 PUSH1 0x20 DUP3 DUP5 SUB SLT ISZERO PUSH2 0x158C JUMPI PUSH1 0x0 DUP1 REVERT JUMPDEST PUSH1 0x0 DUP3 ADD CALLDATALOAD PUSH8 0xFFFFFFFFFFFFFFFF DUP2 GT ISZERO PUSH2 0x15A6 JUMPI PUSH1 0x0 DUP1 REVERT JUMPDEST PUSH2 0x15B2 DUP5 DUP3 DUP6 ADD PUSH2 0x1520 JUMP JUMPDEST SWAP2 POP POP SWAP3 SWAP2 POP POP JUMP JUMPDEST PUSH1 0x0 PUSH1 0x20 DUP3 DUP5 SUB SLT ISZERO PUSH2 0x15CD JUMPI PUSH1 0x0 DUP1 REVERT JUMPDEST PUSH1 0x0 DUP3 ADD CALLDATALOAD PUSH8 0xFFFFFFFFFFFFFFFF DUP2 GT ISZERO PUSH2 0x15E7 JUMPI PUSH1 0x0 DUP1 REVERT JUMPDEST PUSH2 0x15F3 DUP5 DUP3 DUP6 ADD PUSH2 0x154A JUMP JUMPDEST SWAP2 POP POP SWAP3 SWAP2 POP POP JUMP JUMPDEST PUSH1 0x0 PUSH1 0x20 DUP3 DUP5 SUB SLT ISZERO PUSH2 0x160E JUMPI PUSH1 0x0 DUP1 REVERT JUMPDEST PUSH1 0x0 PUSH2 0x161C DUP5 DUP3 DUP6 ADD PUSH2 0x1565 JUMP JUMPDEST SWAP2 POP POP SWAP3 SWAP2 POP POP JUMP JUMPDEST PUSH2 0x162E DUP2 PUSH2 0x19C7 JUMP JUMPDEST DUP3 MSTORE POP POP JUMP JUMPDEST PUSH2 0x163D DUP2 PUSH2 0x19D9 JUMP JUMPDEST DUP3 MSTORE POP POP JUMP JUMPDEST PUSH1 0x0 PUSH2 0x164F DUP4 DUP6 PUSH2 0x1974 JUMP JUMPDEST SWAP4 POP PUSH2 0x165C DUP4 DUP6 DUP5 PUSH2 0x1A24 JUMP JUMPDEST PUSH2 0x1665 DUP4 PUSH2 0x1AC2 JUMP JUMPDEST DUP5 ADD SWAP1 POP SWAP4 SWAP3 POP POP POP JUMP JUMPDEST PUSH1 0x0 PUSH2 0x167C DUP4 DUP6 PUSH2 0x1985 JUMP JUMPDEST SWAP4 POP PUSH2 0x1689 DUP4 DUP6 DUP5 PUSH2 0x1A24 JUMP JUMPDEST DUP3 DUP5 ADD SWAP1 POP SWAP4 SWAP3 POP POP POP JUMP JUMPDEST PUSH1 0x0 PUSH2 0x16A2 PUSH1 0x28 DUP4 PUSH2 0x1974 JUMP JUMPDEST SWAP2 POP PUSH2 0x16AD DUP3 PUSH2 0x1AD3 JUMP JUMPDEST PUSH1 0x40 DUP3 ADD SWAP1 POP SWAP2 SWAP1 POP JUMP JUMPDEST PUSH1 0x0 PUSH2 0x16C5 PUSH1 0x1E DUP4 PUSH2 0x1974 JUMP JUMPDEST SWAP2 POP PUSH2 0x16D0 DUP3 PUSH2 0x1B22 JUMP JUMPDEST PUSH1 0x20 DUP3 ADD SWAP1 POP SWAP2 SWAP1 POP JUMP JUMPDEST PUSH1 0x0 PUSH2 0x16E8 PUSH1 0x15 DUP4 PUSH2 0x1974 JUMP JUMPDEST SWAP2 POP PUSH2 0x16F3 DUP3 PUSH2 0x1B4B JUMP JUMPDEST PUSH1 0x20 DUP3 ADD SWAP1 POP SWAP2 SWAP1 POP JUMP JUMPDEST PUSH1 0x0 PUSH2 0x170B PUSH1 0x20 DUP4 PUSH2 0x1974 JUMP JUMPDEST SWAP2 POP PUSH2 0x1716 DUP3 PUSH2 0x1B74 JUMP JUMPDEST PUSH1 0x20 DUP3 ADD SWAP1 POP SWAP2 SWAP1 POP JUMP JUMPDEST PUSH1 0x0 PUSH2 0x172E PUSH1 0x18 DUP4 PUSH2 0x1974 JUMP JUMPDEST SWAP2 POP PUSH2 0x1739 DUP3 PUSH2 0x1B9D JUMP JUMPDEST PUSH1 0x20 DUP3 ADD SWAP1 POP SWAP2 SWAP1 POP JUMP JUMPDEST PUSH2 0x174D DUP2 PUSH2 0x1A12 JUMP JUMPDEST DUP3 MSTORE POP POP JUMP JUMPDEST PUSH2 0x175C DUP2 PUSH2 0x1A05 JUMP JUMPDEST DUP3 MSTORE POP POP JUMP JUMPDEST PUSH1 0x0 PUSH2 0x176F DUP3 DUP5 DUP7 PUSH2 0x1670 JUMP JUMPDEST SWAP2 POP DUP2 SWAP1 POP SWAP4 SWAP3 POP POP POP JUMP JUMPDEST PUSH1 0x0 PUSH1 0x20 DUP3 ADD SWAP1 POP PUSH2 0x1790 PUSH1 0x0 DUP4 ADD DUP5 PUSH2 0x1625 JUMP JUMPDEST SWAP3 SWAP2 POP POP JUMP JUMPDEST PUSH1 0x0 PUSH1 0x20 DUP3 ADD SWAP1 POP PUSH2 0x17AB PUSH1 0x0 DUP4 ADD DUP5 PUSH2 0x1634 JUMP JUMPDEST SWAP3 SWAP2 POP POP JUMP JUMPDEST PUSH1 0x0 PUSH1 0x20 DUP3 ADD SWAP1 POP DUP2 DUP2 SUB PUSH1 0x0 DUP4 ADD MSTORE PUSH2 0x17CA DUP2 PUSH2 0x1695 JUMP JUMPDEST SWAP1 POP SWAP2 SWAP1 POP JUMP JUMPDEST PUSH1 0x0 PUSH1 0x20 DUP3 ADD SWAP1 POP DUP2 DUP2 SUB PUSH1 0x0 DUP4 ADD MSTORE PUSH2 0x17EA DUP2 PUSH2 0x16B8 JUMP JUMPDEST SWAP1 POP SWAP2 SWAP1 POP JUMP JUMPDEST PUSH1 0x0 PUSH1 0x20 DUP3 ADD SWAP1 POP DUP2 DUP2 SUB PUSH1 0x0 DUP4 ADD MSTORE PUSH2 0x180A DUP2 PUSH2 0x16DB JUMP JUMPDEST SWAP1 POP SWAP2 SWAP1 POP JUMP JUMPDEST PUSH1 0x0 PUSH1 0x20 DUP3 ADD SWAP1 POP DUP2 DUP2 SUB PUSH1 0x0 DUP4 ADD MSTORE PUSH2 0x182A DUP2 PUSH2 0x16FE JUMP JUMPDEST SWAP1 POP SWAP2 SWAP1 POP JUMP JUMPDEST PUSH1 0x0 PUSH1 0x20 DUP3 ADD SWAP1 POP DUP2 DUP2 SUB PUSH1 0x0 DUP4 ADD MSTORE PUSH2 0x184A DUP2 PUSH2 0x1721 JUMP JUMPDEST SWAP1 POP SWAP2 SWAP1 POP JUMP JUMPDEST PUSH1 0x0 PUSH1 0x20 DUP3 ADD SWAP1 POP PUSH2 0x1866 PUSH1 0x0 DUP4 ADD DUP5 PUSH2 0x1744 JUMP JUMPDEST SWAP3 SWAP2 POP POP JUMP JUMPDEST PUSH1 0x0 PUSH1 0x20 DUP3 ADD SWAP1 POP PUSH2 0x1881 PUSH1 0x0 DUP4 ADD DUP5 PUSH2 0x1753 JUMP JUMPDEST SWAP3 SWAP2 POP POP JUMP JUMPDEST PUSH1 0x0 PUSH1 0x60 DUP3 ADD SWAP1 POP PUSH2 0x189C PUSH1 0x0 DUP4 ADD DUP8 PUSH2 0x1753 JUMP JUMPDEST PUSH2 0x18A9 PUSH1 0x20 DUP4 ADD DUP7 PUSH2 0x1753 JUMP JUMPDEST DUP2 DUP2 SUB PUSH1 0x40 DUP4 ADD MSTORE PUSH2 0x18BC DUP2 DUP5 DUP7 PUSH2 0x1643 JUMP JUMPDEST SWAP1 POP SWAP6 SWAP5 POP POP POP POP POP JUMP JUMPDEST PUSH1 0x0 DUP1 DUP4 CALLDATALOAD PUSH1 0x1 PUSH1 0x20 SUB DUP5 CALLDATASIZE SUB SUB DUP2 SLT PUSH2 0x18E0 JUMPI PUSH1 0x0 DUP1 REVERT JUMPDEST DUP1 DUP5 ADD SWAP3 POP DUP3 CALLDATALOAD SWAP2 POP PUSH8 0xFFFFFFFFFFFFFFFF DUP3 GT ISZERO PUSH2 0x18FE JUMPI PUSH1 0x0 DUP1 REVERT JUMPDEST PUSH1 0x20 DUP4 ADD SWAP3 POP PUSH1 0x1 DUP3 MUL CALLDATASIZE SUB DUP4 SGT ISZERO PUSH2 0x1916 JUMPI PUSH1 0x0 DUP1 REVERT JUMPDEST POP SWAP3 POP SWAP3 SWAP1 POP JUMP JUMPDEST PUSH1 0x0 PUSH2 0x1928 PUSH2 0x1939 JUMP JUMPDEST SWAP1 POP PUSH2 0x1934 DUP3 DUP3 PUSH2 0x1A33 JUMP JUMPDEST SWAP2 SWAP1 POP JUMP JUMPDEST PUSH1 0x0 PUSH1 0x40 MLOAD SWAP1 POP SWAP1 JUMP JUMPDEST PUSH1 0x0 PUSH8 0xFFFFFFFFFFFFFFFF DUP3 GT ISZERO PUSH2 0x195E JUMPI PUSH2 0x195D PUSH2 0x1A93 JUMP JUMPDEST JUMPDEST PUSH2 0x1967 DUP3 PUSH2 0x1AC2 JUMP JUMPDEST SWAP1 POP PUSH1 0x20 DUP2 ADD SWAP1 POP SWAP2 SWAP1 POP JUMP JUMPDEST PUSH1 0x0 DUP3 DUP3 MSTORE PUSH1 0x20 DUP3 ADD SWAP1 POP SWAP3 SWAP2 POP POP JUMP JUMPDEST PUSH1 0x0 DUP2 SWAP1 POP SWAP3 SWAP2 POP POP JUMP JUMPDEST PUSH1 0x0 PUSH2 0x199B DUP3 PUSH2 0x1A05 JUMP JUMPDEST SWAP2 POP PUSH2 0x19A6 DUP4 PUSH2 0x1A05 JUMP JUMPDEST SWAP3 POP DUP3 PUSH1 0xFF SUB DUP3 GT ISZERO PUSH2 0x19BC JUMPI PUSH2 0x19BB PUSH2 0x1A64 JUMP JUMPDEST JUMPDEST DUP3 DUP3 ADD SWAP1 POP SWAP3 SWAP2 POP POP JUMP JUMPDEST PUSH1 0x0 PUSH2 0x19D2 DUP3 PUSH2 0x19E5 JUMP JUMPDEST SWAP1 POP SWAP2 SWAP1 POP JUMP JUMPDEST PUSH1 0x0 DUP2 ISZERO ISZERO SWAP1 POP SWAP2 SWAP1 POP JUMP JUMPDEST PUSH1 0x0 PUSH20 0xFFFFFFFFFFFFFFFFFFFFFFFFFFFFFFFFFFFFFFFF DUP3 AND SWAP1 POP SWAP2 SWAP1 POP JUMP JUMPDEST PUSH1 0x0 PUSH1 0xFF DUP3 AND SWAP1 POP SWAP2 SWAP1 POP JUMP JUMPDEST PUSH1 0x0 PUSH2 0x1A1D DUP3 PUSH2 0x1A05 JUMP JUMPDEST SWAP1 POP SWAP2 SWAP1 POP JUMP JUMPDEST DUP3 DUP2 DUP4 CALLDATACOPY PUSH1 0x0 DUP4 DUP4 ADD MSTORE POP POP POP JUMP JUMPDEST PUSH2 0x1A3C DUP3 PUSH2 0x1AC2 JUMP JUMPDEST DUP2 ADD DUP2 DUP2 LT PUSH8 0xFFFFFFFFFFFFFFFF DUP3 GT OR ISZERO PUSH2 0x1A5B JUMPI PUSH2 0x1A5A PUSH2 0x1A93 JUMP JUMPDEST JUMPDEST DUP1 PUSH1 0x40 MSTORE POP POP POP JUMP JUMPDEST PUSH32 0x4E487B7100000000000000000000000000000000000000000000000000000000 PUSH1 0x0 MSTORE PUSH1 0x11 PUSH1 0x4 MSTORE PUSH1 0x24 PUSH1 0x0 REVERT JUMPDEST PUSH32 0x4E487B7100000000000000000000000000000000000000000000000000000000 PUSH1 0x0 MSTORE PUSH1 0x41 PUSH1 0x4 MSTORE PUSH1 0x24 PUSH1 0x0 REVERT JUMPDEST PUSH1 0x0 PUSH1 0x1F NOT PUSH1 0x1F DUP4 ADD AND SWAP1 POP SWAP2 SWAP1 POP JUMP JUMPDEST PUSH32 0x5468697320737461746520726573756C742077617320616C7265616479207375 PUSH1 0x0 DUP3 ADD MSTORE PUSH32 0x626D697474656421000000000000000000000000000000000000000000000000 PUSH1 0x20 DUP3 ADD MSTORE POP JUMP JUMPDEST PUSH32 0x54686520656C656374696F6E2068617320656E64656420616C72656164790000 PUSH1 0x0 DUP3 ADD MSTORE POP JUMP JUMPDEST PUSH32 0x54686572652063616E6E6F742062652061207469650000000000000000000000 PUSH1 0x0 DUP3 ADD MSTORE POP JUMP JUMPDEST PUSH32 0x537461746573206D7573742068617665206174206C6561737420312073656174 PUSH1 0x0 DUP3 ADD MSTORE POP JUMP JUMPDEST PUSH32 0x4E6F7420696E766F6B656420627920746865206F776E65720000000000000000 PUSH1 0x0 DUP3 ADD MSTORE POP JUMP JUMPDEST PUSH2 0x1BCF DUP2 PUSH2 0x1A05 JUMP JUMPDEST DUP2 EQ PUSH2 0x1BDA JUMPI PUSH1 0x0 DUP1 REVERT JUMPDEST POP JUMP INVALID LOG2 PUSH5 0x6970667358 0x22 SLT KECCAK256 0x23 PUSH14 0xAF179DF37A160E38EF45DA242FCB 0x4B PUSH10 0x2F0EBC4C56F728E284AA 0xB2 PUSH15 0xA60D64736F6C634300080400330000 "
        },
        "methodIdentifiers": {
          "BIDEN()": "69b36bd4",
          "TRUMP()": "2d78d8e5",
          "currentLeader()": "ac4bd53a",
          "electionEnded()": "c94ca9e3",
          "endElection()": "59f78468",
          "getOwner()": "893d20e8",
          "owner()": "8da5cb5b",
          "resultsSubmitted(string)": "37ad98ec",
          "seats(uint8)": "713d87c5",
          "submitStateResult((string,uint256,uint256,uint8))": "e494a883"
        }
      }
    }
  }
}