{
  "_format": "hh-sol-artifact-1",
  "contractName": "USElection",
  "sourceName": "contracts/USElection.sol",
  "abi": [
    {
      "anonymous": false,
      "inputs": [
        {
          "indexed": false,
          "internalType": "uint256",
          "name": "winner",
          "type": "uint256"
        }
      ],
      "name": "LogElectionEnded",
      "type": "event"
    },
    {
      "anonymous": false,
      "inputs": [
        {
          "indexed": false,
          "internalType": "uint8",
          "name": "winner",
          "type": "uint8"
        },
        {
          "indexed": false,
          "internalType": "uint8",
          "name": "stateSeats",
          "type": "uint8"
        },
        {
          "indexed": false,
          "internalType": "string",
          "name": "state",
          "type": "string"
        }
      ],
      "name": "LogStateResult",
      "type": "event"
    },
    {
      "inputs": [],
      "name": "BIDEN",
      "outputs": [
        {
          "internalType": "uint8",
          "name": "",
          "type": "uint8"
        }
      ],
      "stateMutability": "view",
      "type": "function"
    },
    {
      "inputs": [],
      "name": "TRUMP",
      "outputs": [
        {
          "internalType": "uint8",
          "name": "",
          "type": "uint8"
        }
      ],
      "stateMutability": "view",
      "type": "function"
    },
    {
      "inputs": [],
      "name": "currentLeader",
      "outputs": [
        {
          "internalType": "uint8",
          "name": "",
          "type": "uint8"
        }
      ],
      "stateMutability": "view",
      "type": "function"
    },
    {
      "inputs": [],
      "name": "electionEnded",
      "outputs": [
        {
          "internalType": "bool",
          "name": "",
          "type": "bool"
        }
      ],
      "stateMutability": "view",
      "type": "function"
    },
    {
      "inputs": [],
      "name": "endElection",
      "outputs": [],
      "stateMutability": "nonpayable",
      "type": "function"
    },
    {
      "inputs": [],
      "name": "getOwner",
      "outputs": [
        {
          "internalType": "address",
          "name": "",
          "type": "address"
        }
      ],
      "stateMutability": "view",
      "type": "function"
    },
    {
      "inputs": [],
      "name": "owner",
      "outputs": [
        {
          "internalType": "address",
          "name": "",
          "type": "address"
        }
      ],
      "stateMutability": "view",
      "type": "function"
    },
    {
      "inputs": [
        {
          "internalType": "string",
          "name": "",
          "type": "string"
        }
      ],
      "name": "resultsSubmitted",
      "outputs": [
        {
          "internalType": "bool",
          "name": "",
          "type": "bool"
        }
      ],
      "stateMutability": "view",
      "type": "function"
    },
    {
      "inputs": [
        {
          "internalType": "uint8",
          "name": "",
          "type": "uint8"
        }
      ],
      "name": "seats",
      "outputs": [
        {
          "internalType": "uint8",
          "name": "",
          "type": "uint8"
        }
      ],
      "stateMutability": "view",
      "type": "function"
    },
    {
      "inputs": [
        {
          "components": [
            {
              "internalType": "string",
              "name": "name",
              "type": "string"
            },
            {
              "internalType": "uint256",
              "name": "votesBiden",
              "type": "uint256"
            },
            {
              "internalType": "uint256",
              "name": "votesTrump",
              "type": "uint256"
            },
            {
              "internalType": "uint8",
              "name": "stateSeats",
              "type": "uint8"
            }
          ],
          "internalType": "struct USElection.StateResult",
          "name": "result",
          "type": "tuple"
        }
      ],
      "name": "submitStateResult",
      "outputs": [],
      "stateMutability": "nonpayable",
      "type": "function"
    }
  ],
  "bytecode": "0x608060405234801561001057600080fd5b506100437fe5bd0f4cf20a27f86802d5273934a768649c0c9d73a958f5b31dafab231c59d160001b6100ec60201b60201c565b6100757f27440cc580482bfa00943011535d4266b2603cc988065cb7a419ea258965c6d260001b6100ec60201b60201c565b6100a77f2baeb31578da9782ea85c52cadc05c5b8bf68bf560abe3156286d04d2692457860001b6100ec60201b60201c565b336000806101000a81548173ffffffffffffffffffffffffffffffffffffffff021916908373ffffffffffffffffffffffffffffffffffffffff1602179055506100ef565b50565b611c1380620000ff6000396000f3fe608060405234801561001057600080fd5b506004361061009e5760003560e01c8063893d20e811610066578063893d20e8146101495780638da5cb5b14610167578063ac4bd53a14610185578063c94ca9e3146101a3578063e494a883146101c15761009e565b80632d78d8e5146100a357806337ad98ec146100c157806359f78468146100f157806369b36bd4146100fb578063713d87c514610119575b600080fd5b6100ab6101dd565b6040516100b8919061186c565b60405180910390f35b6100db60048036038101906100d6919061157a565b6101e2565b6040516100e89190611796565b60405180910390f35b6100f9610218565b005b61010361063d565b604051610110919061186c565b60405180910390f35b610133600480360381019061012e91906115fc565b610642565b604051610140919061186c565b60405180910390f35b610151610662565b60405161015e919061177b565b60405180910390f35b61016f61070e565b60405161017c919061177b565b60405180910390f35b61018d610732565b60405161019a919061186c565b60405180910390f35b6101ab610a9a565b6040516101b89190611796565b60405180910390f35b6101db60048036038101906101d691906115bb565b610aad565b005b600281565b6002818051602081018201805184825260208301602085012081835280955050505050506000915054906101000a900460ff1681565b6102447fea68c6e71f931550975ad682a4460424a0ab6f69e4667dbc600202c894a4a34860001b6114dc565b6102707f31ecc15382b4e82889f26c2d68c66b561b14e864f08ac2fbfa71bb019b7d2a3c60001b6114dc565b61029c7f81ecfcba80de40bbe5d383f44708112820b2f8d3a50e207f4e0c8100d175615360001b6114dc565b6102c87fd15f9d586e68dce4ff85de1c2b5726d5547a7b99d074d9c11db87fae3f0337ee60001b6114dc565b3373ffffffffffffffffffffffffffffffffffffffff1660008054906101000a900473ffffffffffffffffffffffffffffffffffffffff1673ffffffffffffffffffffffffffffffffffffffff1614610356576040517f08c379a000000000000000000000000000000000000000000000000000000000815260040161034d90611831565b60405180910390fd5b6103827fcc8f782b97859d38a3ac79c7dc02c5f1afb0f9d7ac61823bbd0d113d4317ee9f60001b6114dc565b6103ae7f4e62f73dbbd593da3c0765b692faef2294884aa74e7dea5391a555261b58056c60001b6114dc565b6103da7f4a20351ed126ebce4b672b731014f9acc834cfbfcac29e985fa638c5a87a338460001b6114df565b6104067fa73e64de2a26dabd68777b95e2d6916f5c49866b4430a25514d0b1e7f32bfa9960001b6114df565b6104327f50d05dcb409d001bad2c0f2bd08729398b47b3db76f8b0229046306836229a0f60001b6114df565b61045e7f911d658c2dc14bca9477e93ce2775d4dd7fad3eb39eb02f849dd01922e6e8e3660001b6114df565b600060149054906101000a900460ff16156104ae576040517f08c379a00000000000000000000000000000000000000000000000000000000081526004016104a5906117d1565b60405180910390fd5b6104da7f99b6752d35eb8093b526e8ca9083bf7498ace4c3ce5f4090bded0d6d9d803bad60001b6114df565b6105067f2050a51d722792350a0628a8b1aeef5baeda39b34c61de5f06e78ade680b582460001b6114df565b6105327f634e07be9a47bc5b762e1b56baf6d3dc01337ed3f1a76ef348a8aa25039ec52460001b6114df565b61055e7f14f2a5f33c1921245810a99f953182f8163134268dc39683f38bc483154933ae60001b6114df565b61058a7f85b7ea7101a0ecccd1718e9718be3701541c648cca3cb2b70fc036a17236eb0360001b6114df565b6001600060146101000a81548160ff0219169083151502179055506105d17f40912a952524e4b4ab6dae934214edee307fba207cfafad80a4db086bd8df91460001b6114df565b6105fd7f8c96e115267c3d3454d69bcf84dee9f4dd1ff072760e41a3ce0fe6a0dcce998f60001b6114df565b7faacb23683ec1a0e9b52f9a6264edf58ad322ac62079d65ea7363a2d400f439f4610626610732565b6040516106339190611851565b60405180910390a1565b600181565b60016020528060005260406000206000915054906101000a900460ff1681565b60006106907f659780324d7853406323093a03de19279053cbffbd8305f12a81e15d20080e9460001b6114df565b6106bc7f31f6bf70172ac4e39b8ce6e7e48c389673822de4b71a36ed42f292af31b873c560001b6114df565b6106e87fd64d34b8d6eac3705dba8e197d607296ce82a31b94a9391308a6675ac2fbff9160001b6114df565b60008054906101000a900473ffffffffffffffffffffffffffffffffffffffff16905090565b60008054906101000a900473ffffffffffffffffffffffffffffffffffffffff1681565b60006107607fd03f5e7f0c552a9ca03affc6a3378b9725bdcc393f6f62d0bd54d9d8ac52a20860001b6114df565b61078c7f3481a81b5d15832fba45f12acead4b8ef74153498335aa209a7dede09c70571f60001b6114df565b6107b87fc024f09b39d49eb37e7694452f8a01130df6fee7c4cec3bb37d3eaeffb1ac8ac60001b6114df565b60016000600260ff1660ff16815260200190815260200160002060009054906101000a900460ff1660ff1660016000600160ff1660ff16815260200190815260200160002060009054906101000a900460ff1660ff1611156108a1576108407fd8ecf95801e8e17323e2648892184ce64d758085ce22f48b6c3ac0bb292abc2360001b6114df565b61086c7f5e3781c1756814e89d446618c4b0edb998c4674e2e858b53adb48299cc8c43ea60001b6114df565b6108987fee11560920388221c858bd40aa07cba9bbe15e5e3e8e468269c8d056ee6d5d4560001b6114df565b60019050610a97565b6108cd7f145af536f381bf4e2271d204451c95cc2f1ad496c8e6afdcbfbd5894f4ea4cbb60001b6114df565b6108f97f73893f50c7ab751c68c3537b7cc6d88e56889894976f2c76221a352251f6533560001b6114df565b6109257f1c50b1e69a80060ed4cdc9215c09fcce420d947333774b32af13ac63e7990a5160001b6114df565b60016000600160ff1660ff16815260200190815260200160002060009054906101000a900460ff1660ff1660016000600260ff1660ff16815260200190815260200160002060009054906101000a900460ff1660ff161115610a0e576109ad7f6d119dba1e5c6d9789faffd58d136ea6df6242e9383ca5d4e7f4fafcffbde34860001b6114df565b6109d97fe57e7f2b82961d8932cb9fc114c60365e06baf1b8d5c56dff2d43a45481607fb60001b6114df565b610a057fa3779270fa7d8a0521857c6e2ab72336a591b9ac254369f1eb27744da97f42e060001b6114df565b60029050610a97565b610a3a7f3ab63208caac1c37dab7d1e0a0690ed6119e016e5fe2a0ded26f43c27750fe9e60001b6114df565b610a667f7a5dbf8e8c8bca5c5832e71838a2aecef47a1266060d4b6a3b81930bfc208c4960001b6114df565b610a927f80dd3697da1f303b78103c1329acec1e7eb9c0711844eb6a8eac3b62ffc6b7d460001b6114df565b600090505b90565b600060149054906101000a900460ff1681565b610ad97fea68c6e71f931550975ad682a4460424a0ab6f69e4667dbc600202c894a4a34860001b6114dc565b610b057f31ecc15382b4e82889f26c2d68c66b561b14e864f08ac2fbfa71bb019b7d2a3c60001b6114dc565b610b317f81ecfcba80de40bbe5d383f44708112820b2f8d3a50e207f4e0c8100d175615360001b6114dc565b610b5d7fd15f9d586e68dce4ff85de1c2b5726d5547a7b99d074d9c11db87fae3f0337ee60001b6114dc565b3373ffffffffffffffffffffffffffffffffffffffff1660008054906101000a900473ffffffffffffffffffffffffffffffffffffffff1673ffffffffffffffffffffffffffffffffffffffff1614610beb576040517f08c379a0000000000000000000000000000000000000000000000000000000008152600401610be290611831565b60405180910390fd5b610c177fcc8f782b97859d38a3ac79c7dc02c5f1afb0f9d7ac61823bbd0d113d4317ee9f60001b6114dc565b610c437f4e62f73dbbd593da3c0765b692faef2294884aa74e7dea5391a555261b58056c60001b6114dc565b610c6f7f4a20351ed126ebce4b672b731014f9acc834cfbfcac29e985fa638c5a87a338460001b6114df565b610c9b7fa73e64de2a26dabd68777b95e2d6916f5c49866b4430a25514d0b1e7f32bfa9960001b6114df565b610cc77f50d05dcb409d001bad2c0f2bd08729398b47b3db76f8b0229046306836229a0f60001b6114df565b610cf37f911d658c2dc14bca9477e93ce2775d4dd7fad3eb39eb02f849dd01922e6e8e3660001b6114df565b600060149054906101000a900460ff1615610d43576040517f08c379a0000000000000000000000000000000000000000000000000000000008152600401610d3a906117d1565b60405180910390fd5b610d6f7f99b6752d35eb8093b526e8ca9083bf7498ace4c3ce5f4090bded0d6d9d803bad60001b6114df565b610d9b7f2050a51d722792350a0628a8b1aeef5baeda39b34c61de5f06e78ade680b582460001b6114df565b610dc77f24fba1b926e183f304c8a7a51801b94a1da9b4655d2dfbd5e4df6ee9b583a64b60001b6114df565b610df37f540862f44d9f69ee8a11edef385bf8e719bf0b51fbef624237b45930865cec6b60001b6114df565b610e1f7f7e99751849cb7733888fa3f69f7d2851fa9485a90a81bd072e0718dc8baa589160001b6114df565b610e4b7fa6bcbbfc685aaa3bc3d739d239f577013d53bf5b748158b10e7d6d314b86cb3760001b6114df565b6000816060016020810190610e6091906115fc565b60ff1611610ea3576040517f08c379a0000000000000000000000000000000000000000000000000000000008152600401610e9a90611811565b60405180910390fd5b610ecf7f76e3a7f4ad120ec6250c019b3c8ff5d95983225fad6c64afdeb8b7c94cdba38460001b6114df565b610efb7f5074e8053992df50d12dfd6d0b976b1cac9e0de5dbedf312f0b493a89bb6caeb60001b6114df565b610f277ff1bea036b0cf0c8a88cd71c92abba2e3f16a5a78d24ecfbc7e00da5c31340f6660001b6114df565b610f537f0d7ebd290c013e41e34b0dcb6f15fad945fe5cd715aca3b324d38a543c3204df60001b6114df565b806040013581602001351415610f9e576040517f08c379a0000000000000000000000000000000000000000000000000000000008152600401610f95906117f1565b60405180910390fd5b610fca7f7173ebda9660f927cfb6d1285aad3bb33ab76794908e46cebe3ff0c42cf7107660001b6114df565b610ff67fb846279d1d81ffd1041e29ae9c7b25f1c6609886ea5f9863ae5d174e1a26736c60001b6114df565b6110227fcb422543103c57e173e9f9be7ca098599033d51c3960b03de3a8030ec526515560001b6114df565b61104e7f9d0d1adabb9e9f4316e3ad381ee8c473efd2ab7ddb55bfe17e7aefb8e6671dc960001b6114df565b600281806000019061106091906118c7565b60405161106e929190611762565b908152602001604051809103902060009054906101000a900460ff16156110ca576040517f08c379a00000000000000000000000000000000000000000000000000000000081526004016110c1906117b1565b60405180910390fd5b6110f67f0660c649b6dbbc6e896c7331b3a455e72fbf3a6aa5c57957839c5b4a2ebdf8ea60001b6114df565b6111227fe10bd941bf2ed68cae8771dedf0971535f9c55af26b6b81a96a15a29a9bb2e4660001b6114df565b61114e7f3085e8eccecc37a33dcc7a2595e7d43fd385de880136440fe9810b1e7fab05f760001b6114df565b600061117c7f054c7b30f4e4e64f7ec238a18bac6842cd08cb0da9bba7af46730b3c5131103360001b6114df565b6111a87fa66208031d1aa7f5a3c63b7be783bf56f66c8b2f650cfbc5e3d8d45b41e4530960001b6114df565b816040013582602001351115611245576111e47f65e41fece3caa9e75b28ad5a251f0f46f8268a1dac9173023d4a2bf51372bbaf60001b6114df565b6112107f81fa78e1c6a2b9f21d64cbdf7be8b499a0936de88469ea2c3ed14fa5a7983fd960001b6114df565b61123c7f5f55d6bad4bb374b3d2e39e40cf8b5e591ea71a12cffcb0ae03a0fd7689af72360001b6114df565b600190506112cd565b6112707e022f038dbe0de60e8ed05c5fc612c8a66ea317e289b2498610094fca4b01ef60001b6114df565b61129c7f8635c3f7e770c79e270763ba740fb9c9fea472b4cdcf0f20292c44256d40142d60001b6114df565b6112c87f23ae61e523e60515e626a43e9aca3eebf52bf766c4db67847925efcc4fa5355f60001b6114df565b600290505b6112f97f5b79847692e66795d77bc9f2b14f420c9a801ae6f9b8ac364023b6a83eb01c3760001b6114df565b6113257f8fb7fe27abc21a7b0df36d927b5237856608ec571bd14d8782eef742b662150a60001b6114df565b81606001602081019061133891906115fc565b600160008360ff1660ff16815260200190815260200160002060008282829054906101000a900460ff1661136c9190611990565b92506101000a81548160ff021916908360ff1602179055506113b07f0a4941acc080287b5ceead5ee85b44ea2ebff0eab4b7b03b5d54823a3221389760001b6114df565b6113dc7f3665334a6f14e53d08b359fbf0f9dbd5ab41fa602b0043523e10b6adfdf8f8e460001b6114df565b600160028380600001906113f091906118c7565b6040516113fe929190611762565b908152602001604051809103902060006101000a81548160ff02191690831515021790555061144f7f3281404401c957caffa7b175bd9899124f8117ee48c7e75727dc61121d7cb5aa60001b6114df565b61147b7fc641e1315c8c1b21ffe6cb18c7e33e8c4e3648d2bf9725a9b010560e8e3ae62160001b6114df565b7fa2e71fe38f1afa3762cf9d2ea7bb6a4d272a90fd6f9392f3acedd3b542046b46818360600160208101906114b091906115fc565b8480600001906114c091906118c7565b6040516114d09493929190611887565b60405180910390a15050565b50565b50565b60006114f56114f084611943565b61191e565b90508281526020810184848401111561150d57600080fd5b611518848285611a24565b509392505050565b600082601f83011261153157600080fd5b81356115418482602086016114e2565b91505092915050565b60006080828403121561155c57600080fd5b81905092915050565b60008135905061157481611bc6565b92915050565b60006020828403121561158c57600080fd5b600082013567ffffffffffffffff8111156115a657600080fd5b6115b284828501611520565b91505092915050565b6000602082840312156115cd57600080fd5b600082013567ffffffffffffffff8111156115e757600080fd5b6115f38482850161154a565b91505092915050565b60006020828403121561160e57600080fd5b600061161c84828501611565565b91505092915050565b61162e816119c7565b82525050565b61163d816119d9565b82525050565b600061164f8385611974565b935061165c838584611a24565b61166583611ac2565b840190509392505050565b600061167c8385611985565b9350611689838584611a24565b82840190509392505050565b60006116a2602883611974565b91506116ad82611ad3565b604082019050919050565b60006116c5601e83611974565b91506116d082611b22565b602082019050919050565b60006116e8601583611974565b91506116f382611b4b565b602082019050919050565b600061170b602083611974565b915061171682611b74565b602082019050919050565b600061172e601883611974565b915061173982611b9d565b602082019050919050565b61174d81611a12565b82525050565b61175c81611a05565b82525050565b600061176f828486611670565b91508190509392505050565b60006020820190506117906000830184611625565b92915050565b60006020820190506117ab6000830184611634565b92915050565b600060208201905081810360008301526117ca81611695565b9050919050565b600060208201905081810360008301526117ea816116b8565b9050919050565b6000602082019050818103600083015261180a816116db565b9050919050565b6000602082019050818103600083015261182a816116fe565b9050919050565b6000602082019050818103600083015261184a81611721565b9050919050565b60006020820190506118666000830184611744565b92915050565b60006020820190506118816000830184611753565b92915050565b600060608201905061189c6000830187611753565b6118a96020830186611753565b81810360408301526118bc818486611643565b905095945050505050565b600080833560016020038436030381126118e057600080fd5b80840192508235915067ffffffffffffffff8211156118fe57600080fd5b60208301925060018202360383131561191657600080fd5b509250929050565b6000611928611939565b90506119348282611a33565b919050565b6000604051905090565b600067ffffffffffffffff82111561195e5761195d611a93565b5b61196782611ac2565b9050602081019050919050565b600082825260208201905092915050565b600081905092915050565b600061199b82611a05565b91506119a683611a05565b92508260ff038211156119bc576119bb611a64565b5b828201905092915050565b60006119d2826119e5565b9050919050565b60008115159050919050565b600073ffffffffffffffffffffffffffffffffffffffff82169050919050565b600060ff82169050919050565b6000611a1d82611a05565b9050919050565b82818337600083830152505050565b611a3c82611ac2565b810181811067ffffffffffffffff82111715611a5b57611a5a611a93565b5b80604052505050565b7f4e487b7100000000000000000000000000000000000000000000000000000000600052601160045260246000fd5b7f4e487b7100000000000000000000000000000000000000000000000000000000600052604160045260246000fd5b6000601f19601f8301169050919050565b7f5468697320737461746520726573756c742077617320616c726561647920737560008201527f626d697474656421000000000000000000000000000000000000000000000000602082015250565b7f54686520656c656374696f6e2068617320656e64656420616c72656164790000600082015250565b7f54686572652063616e6e6f742062652061207469650000000000000000000000600082015250565b7f537461746573206d7573742068617665206174206c6561737420312073656174600082015250565b7f4e6f7420696e766f6b656420627920746865206f776e65720000000000000000600082015250565b611bcf81611a05565b8114611bda57600080fd5b5056fea2646970667358221220236daf179df37a160e38ef45da242fcb4b692f0ebc4c56f728e284aab26ea60d64736f6c63430008040033",
  "linkReferences": {},
  "deployedLinkReferences": {}
}