{
  "_format": "hh-sol-artifact-1",
  "contractName": "USElection",
  "sourceName": "contracts/USElection.sol",
  "abi": [
    {
      "anonymous": false,
      "inputs": [
        {
          "indexed": false,
          "internalType": "uint256",
          "name": "winner",
          "type": "uint256"
        }
      ],
      "name": "LogElectionEnded",
      "type": "event"
    },
    {
      "anonymous": false,
      "inputs": [
        {
          "indexed": false,
          "internalType": "uint8",
          "name": "winner",
          "type": "uint8"
        },
        {
          "indexed": false,
          "internalType": "uint8",
          "name": "stateSeats",
          "type": "uint8"
        },
        {
          "indexed": false,
          "internalType": "string",
          "name": "state",
          "type": "string"
        }
      ],
      "name": "LogStateResult",
      "type": "event"
    },
    {
      "inputs": [],
      "name": "BIDEN",
      "outputs": [
        {
          "internalType": "uint8",
          "name": "",
          "type": "uint8"
        }
      ],
      "stateMutability": "view",
      "type": "function"
    },
    {
      "inputs": [],
      "name": "TRUMP",
      "outputs": [
        {
          "internalType": "uint8",
          "name": "",
          "type": "uint8"
        }
      ],
      "stateMutability": "view",
      "type": "function"
    },
    {
      "inputs": [],
      "name": "currentLeader",
      "outputs": [
        {
          "internalType": "uint8",
          "name": "",
          "type": "uint8"
        }
      ],
      "stateMutability": "view",
      "type": "function"
    },
    {
      "inputs": [],
      "name": "electionEnded",
      "outputs": [
        {
          "internalType": "bool",
          "name": "",
          "type": "bool"
        }
      ],
      "stateMutability": "view",
      "type": "function"
    },
    {
      "inputs": [],
      "name": "endElection",
      "outputs": [],
      "stateMutability": "nonpayable",
      "type": "function"
    },
    {
      "inputs": [],
      "name": "getOwner",
      "outputs": [
        {
          "internalType": "address",
          "name": "",
          "type": "address"
        }
      ],
      "stateMutability": "view",
      "type": "function"
    },
    {
      "inputs": [],
      "name": "owner",
      "outputs": [
        {
          "internalType": "address",
          "name": "",
          "type": "address"
        }
      ],
      "stateMutability": "view",
      "type": "function"
    },
    {
      "inputs": [
        {
          "internalType": "string",
          "name": "",
          "type": "string"
        }
      ],
      "name": "resultsSubmitted",
      "outputs": [
        {
          "internalType": "bool",
          "name": "",
          "type": "bool"
        }
      ],
      "stateMutability": "view",
      "type": "function"
    },
    {
      "inputs": [
        {
          "internalType": "uint8",
          "name": "",
          "type": "uint8"
        }
      ],
      "name": "seats",
      "outputs": [
        {
          "internalType": "uint8",
          "name": "",
          "type": "uint8"
        }
      ],
      "stateMutability": "view",
      "type": "function"
    },
    {
      "inputs": [
        {
          "components": [
            {
              "internalType": "string",
              "name": "name",
              "type": "string"
            },
            {
              "internalType": "uint256",
              "name": "votesBiden",
              "type": "uint256"
            },
            {
              "internalType": "uint256",
              "name": "votesTrump",
              "type": "uint256"
            },
            {
              "internalType": "uint8",
              "name": "stateSeats",
              "type": "uint8"
            }
          ],
          "internalType": "struct USElection.StateResult",
          "name": "result",
          "type": "tuple"
        }
      ],
      "name": "submitStateResult",
      "outputs": [],
      "stateMutability": "nonpayable",
      "type": "function"
    }
  ],
  "bytecode": "0x60806040523480156200001157600080fd5b506200005e6040518060400160405280601c81526020017f636f6e7374727563746f72206d73672e73656e6465723a20202573200000000081525033620000a460201b620009a61760201c565b336000806101000a81548173ffffffffffffffffffffffffffffffffffffffff021916908373ffffffffffffffffffffffffffffffffffffffff16021790555062000290565b620001468282604051602401620000bd929190620001c5565b6040516020818303038152906040527f319af333000000000000000000000000000000000000000000000000000000007bffffffffffffffffffffffffffffffffffffffffffffffffffffffff19166020820180517bffffffffffffffffffffffffffffffffffffffffffffffffffffffff83818316178352505050506200014a60201b60201c565b5050565b60008151905060006a636f6e736f6c652e6c6f679050602083016000808483855afa5050505050565b6200017e8162000215565b82525050565b60006200019182620001f9565b6200019d818562000204565b9350620001af81856020860162000249565b620001ba816200027f565b840191505092915050565b60006040820190508181036000830152620001e1818562000184565b9050620001f2602083018462000173565b9392505050565b600081519050919050565b600082825260208201905092915050565b6000620002228262000229565b9050919050565b600073ffffffffffffffffffffffffffffffffffffffff82169050919050565b60005b83811015620002695780820151818401526020810190506200024c565b8381111562000279576000848401525b50505050565b6000601f19601f8301169050919050565b6112ad80620002a06000396000f3fe608060405234801561001057600080fd5b506004361061009e5760003560e01c8063893d20e811610066578063893d20e8146101495780638da5cb5b14610167578063ac4bd53a14610185578063c94ca9e3146101a3578063e494a883146101c15761009e565b80632d78d8e5146100a357806337ad98ec146100c157806359f78468146100f157806369b36bd4146100fb578063713d87c514610119575b600080fd5b6100ab6101dd565b6040516100b89190610fe1565b60405180910390f35b6100db60048036038101906100d69190610b9f565b6101e2565b6040516100e89190610eab565b60405180910390f35b6100f9610218565b005b61010361043d565b6040516101109190610fe1565b60405180910390f35b610133600480360381019061012e9190610c21565b610442565b6040516101409190610fe1565b60405180910390f35b610151610462565b60405161015e9190610e90565b60405180910390f35b61016f61048b565b60405161017c9190610e90565b60405180910390f35b61018d6104af565b60405161019a9190610fe1565b60405180910390f35b6101ab610583565b6040516101b89190610eab565b60405180910390f35b6101db60048036038101906101d69190610be0565b610596565b005b600281565b6002818051602081018201805184825260208301602085012081835280955050505050506000915054906101000a900460ff1681565b6102576040518060400160405280601a81526020017f6f6e6c794f776e6572206d73672e73656e6465723a2020257320000000000000815250336109a6565b6102b66040518060400160405280601581526020017f6f6e6c794f776e6572206f776e65723a2020257320000000000000000000000081525060008054906101000a900473ffffffffffffffffffffffffffffffffffffffff166109a6565b3373ffffffffffffffffffffffffffffffffffffffff1660008054906101000a900473ffffffffffffffffffffffffffffffffffffffff1673ffffffffffffffffffffffffffffffffffffffff1614610344576040517f08c379a000000000000000000000000000000000000000000000000000000000815260040161033b90610fa6565b60405180910390fd5b6103926040518060400160405280601681526020017f5553456c656374696f6e20656e6465643a202025732000000000000000000000815250600060149054906101000a900460ff16610a42565b600060149054906101000a900460ff16156103e2576040517f08c379a00000000000000000000000000000000000000000000000000000000081526004016103d990610f46565b60405180910390fd5b6001600060146101000a81548160ff0219169083151502179055507faacb23683ec1a0e9b52f9a6264edf58ad322ac62079d65ea7363a2d400f439f46104266104af565b6040516104339190610fc6565b60405180910390a1565b600181565b60016020528060005260406000206000915054906101000a900460ff1681565b60008060009054906101000a900473ffffffffffffffffffffffffffffffffffffffff16905090565b60008054906101000a900473ffffffffffffffffffffffffffffffffffffffff1681565b600060016000600260ff1660ff16815260200190815260200160002060009054906101000a900460ff1660ff1660016000600160ff1660ff16815260200190815260200160002060009054906101000a900460ff1660ff1611156105165760019050610580565b60016000600160ff1660ff16815260200190815260200160002060009054906101000a900460ff1660ff1660016000600260ff1660ff16815260200190815260200160002060009054906101000a900460ff1660ff16111561057b5760029050610580565b600090505b90565b600060149054906101000a900460ff1681565b6105d56040518060400160405280601a81526020017f6f6e6c794f776e6572206d73672e73656e6465723a2020257320000000000000815250336109a6565b6106346040518060400160405280601581526020017f6f6e6c794f776e6572206f776e65723a2020257320000000000000000000000081525060008054906101000a900473ffffffffffffffffffffffffffffffffffffffff166109a6565b3373ffffffffffffffffffffffffffffffffffffffff1660008054906101000a900473ffffffffffffffffffffffffffffffffffffffff1673ffffffffffffffffffffffffffffffffffffffff16146106c2576040517f08c379a00000000000000000000000000000000000000000000000000000000081526004016106b990610fa6565b60405180910390fd5b6107106040518060400160405280601681526020017f5553456c656374696f6e20656e6465643a202025732000000000000000000000815250600060149054906101000a900460ff16610a42565b600060149054906101000a900460ff1615610760576040517f08c379a000000000000000000000000000000000000000000000000000000000815260040161075790610f46565b60405180910390fd5b60008160600160208101906107759190610c21565b60ff16116107b8576040517f08c379a00000000000000000000000000000000000000000000000000000000081526004016107af90610f86565b60405180910390fd5b806040013581602001351415610803576040517f08c379a00000000000000000000000000000000000000000000000000000000081526004016107fa90610f66565b60405180910390fd5b6002818060000190610815919061103c565b604051610823929190610e77565b908152602001604051809103902060009054906101000a900460ff161561087f576040517f08c379a000000000000000000000000000000000000000000000000000000000815260040161087690610f26565b60405180910390fd5b600081604001358260200135111561089a576001905061089f565b600290505b8160600160208101906108b29190610c21565b600160008360ff1660ff16815260200190815260200160002060008282829054906101000a900460ff166108e6919061111b565b92506101000a81548160ff021916908360ff16021790555060016002838060000190610912919061103c565b604051610920929190610e77565b908152602001604051809103902060006101000a81548160ff0219169083151502179055507fa2e71fe38f1afa3762cf9d2ea7bb6a4d272a90fd6f9392f3acedd3b542046b468183606001602081019061097a9190610c21565b84806000019061098a919061103c565b60405161099a9493929190610ffc565b60405180910390a15050565b610a3e82826040516024016109bc929190610ec6565b6040516020818303038152906040527f319af333000000000000000000000000000000000000000000000000000000007bffffffffffffffffffffffffffffffffffffffffffffffffffffffff19166020820180517bffffffffffffffffffffffffffffffffffffffffffffffffffffffff8381831617835250505050610ade565b5050565b610ada8282604051602401610a58929190610ef6565b6040516020818303038152906040527fc3b55635000000000000000000000000000000000000000000000000000000007bffffffffffffffffffffffffffffffffffffffffffffffffffffffff19166020820180517bffffffffffffffffffffffffffffffffffffffffffffffffffffffff8381831617835250505050610ade565b5050565b60008151905060006a636f6e736f6c652e6c6f679050602083016000808483855afa5050505050565b6000610b1a610b15846110c4565b611093565b905082815260208101848484011115610b3257600080fd5b610b3d8482856111af565b509392505050565b600082601f830112610b5657600080fd5b8135610b66848260208601610b07565b91505092915050565b600060808284031215610b8157600080fd5b81905092915050565b600081359050610b9981611260565b92915050565b600060208284031215610bb157600080fd5b600082013567ffffffffffffffff811115610bcb57600080fd5b610bd784828501610b45565b91505092915050565b600060208284031215610bf257600080fd5b600082013567ffffffffffffffff811115610c0c57600080fd5b610c1884828501610b6f565b91505092915050565b600060208284031215610c3357600080fd5b6000610c4184828501610b8a565b91505092915050565b610c5381611152565b82525050565b610c6281611164565b82525050565b6000610c7483856110ff565b9350610c818385846111af565b610c8a8361124f565b840190509392505050565b6000610ca18385611110565b9350610cae8385846111af565b82840190509392505050565b6000610cc5826110f4565b610ccf81856110ff565b9350610cdf8185602086016111be565b610ce88161124f565b840191505092915050565b6000610d006028836110ff565b91507f5468697320737461746520726573756c742077617320616c726561647920737560008301527f626d6974746564210000000000000000000000000000000000000000000000006020830152604082019050919050565b6000610d66601e836110ff565b91507f54686520656c656374696f6e2068617320656e64656420616c726561647900006000830152602082019050919050565b6000610da66015836110ff565b91507f54686572652063616e6e6f7420626520612074696500000000000000000000006000830152602082019050919050565b6000610de66020836110ff565b91507f537461746573206d7573742068617665206174206c65617374203120736561746000830152602082019050919050565b6000610e266018836110ff565b91507f4e6f7420696e766f6b656420627920746865206f776e657200000000000000006000830152602082019050919050565b610e628161119d565b82525050565b610e7181611190565b82525050565b6000610e84828486610c95565b91508190509392505050565b6000602082019050610ea56000830184610c4a565b92915050565b6000602082019050610ec06000830184610c59565b92915050565b60006040820190508181036000830152610ee08185610cba565b9050610eef6020830184610c4a565b9392505050565b60006040820190508181036000830152610f108185610cba565b9050610f1f6020830184610c59565b9392505050565b60006020820190508181036000830152610f3f81610cf3565b9050919050565b60006020820190508181036000830152610f5f81610d59565b9050919050565b60006020820190508181036000830152610f7f81610d99565b9050919050565b60006020820190508181036000830152610f9f81610dd9565b9050919050565b60006020820190508181036000830152610fbf81610e19565b9050919050565b6000602082019050610fdb6000830184610e59565b92915050565b6000602082019050610ff66000830184610e68565b92915050565b60006060820190506110116000830187610e68565b61101e6020830186610e68565b8181036040830152611031818486610c68565b905095945050505050565b6000808335600160200384360303811261105557600080fd5b80840192508235915067ffffffffffffffff82111561107357600080fd5b60208301925060018202360383131561108b57600080fd5b509250929050565b6000604051905081810181811067ffffffffffffffff821117156110ba576110b9611220565b5b8060405250919050565b600067ffffffffffffffff8211156110df576110de611220565b5b601f19601f8301169050602081019050919050565b600081519050919050565b600082825260208201905092915050565b600081905092915050565b600061112682611190565b915061113183611190565b92508260ff03821115611147576111466111f1565b5b828201905092915050565b600061115d82611170565b9050919050565b60008115159050919050565b600073ffffffffffffffffffffffffffffffffffffffff82169050919050565b600060ff82169050919050565b60006111a882611190565b9050919050565b82818337600083830152505050565b60005b838110156111dc5780820151818401526020810190506111c1565b838111156111eb576000848401525b50505050565b7f4e487b7100000000000000000000000000000000000000000000000000000000600052601160045260246000fd5b7f4e487b7100000000000000000000000000000000000000000000000000000000600052604160045260246000fd5b6000601f19601f8301169050919050565b61126981611190565b811461127457600080fd5b5056fea2646970667358221220c2e72f88045d42757eb20965ff3aad7184c9799c21c2815f1aa8c3ba5848e74364736f6c63430008000033",
  "linkReferences": {},
  "deployedLinkReferences": {}
}