{
  "_format": "hh-sol-artifact-1",
  "contractName": "USElection",
  "sourceName": "contracts/USElection.sol",
  "abi": [
    {
      "anonymous": false,
      "inputs": [
        {
          "indexed": false,
          "internalType": "uint256",
          "name": "winner",
          "type": "uint256"
        }
      ],
      "name": "LogElectionEnded",
      "type": "event"
    },
    {
      "anonymous": false,
      "inputs": [
        {
          "indexed": false,
          "internalType": "uint8",
          "name": "winner",
          "type": "uint8"
        },
        {
          "indexed": false,
          "internalType": "uint8",
          "name": "stateSeats",
          "type": "uint8"
        },
        {
          "indexed": false,
          "internalType": "string",
          "name": "state",
          "type": "string"
        }
      ],
      "name": "LogStateResult",
      "type": "event"
    },
    {
      "anonymous": false,
      "inputs": [
        {
          "indexed": true,
          "internalType": "address",
          "name": "previousOwner",
          "type": "address"
        },
        {
          "indexed": true,
          "internalType": "address",
          "name": "newOwner",
          "type": "address"
        }
      ],
      "name": "OwnershipTransferred",
      "type": "event"
    },
    {
      "inputs": [],
      "name": "BIDEN",
      "outputs": [
        {
          "internalType": "uint8",
          "name": "",
          "type": "uint8"
        }
      ],
      "stateMutability": "view",
      "type": "function"
    },
    {
      "inputs": [],
      "name": "TRUMP",
      "outputs": [
        {
          "internalType": "uint8",
          "name": "",
          "type": "uint8"
        }
      ],
      "stateMutability": "view",
      "type": "function"
    },
    {
      "inputs": [],
      "name": "currentLeader",
      "outputs": [
        {
          "internalType": "uint8",
          "name": "",
          "type": "uint8"
        }
      ],
      "stateMutability": "view",
      "type": "function"
    },
    {
      "inputs": [],
      "name": "electionEnded",
      "outputs": [
        {
          "internalType": "bool",
          "name": "",
          "type": "bool"
        }
      ],
      "stateMutability": "view",
      "type": "function"
    },
    {
      "inputs": [],
      "name": "endElection",
      "outputs": [],
      "stateMutability": "nonpayable",
      "type": "function"
    },
    {
      "inputs": [],
      "name": "owner",
      "outputs": [
        {
          "internalType": "address",
          "name": "",
          "type": "address"
        }
      ],
      "stateMutability": "view",
      "type": "function"
    },
    {
      "inputs": [],
      "name": "renounceOwnership",
      "outputs": [],
      "stateMutability": "nonpayable",
      "type": "function"
    },
    {
      "inputs": [
        {
          "internalType": "string",
          "name": "",
          "type": "string"
        }
      ],
      "name": "resultsSubmitted",
      "outputs": [
        {
          "internalType": "bool",
          "name": "",
          "type": "bool"
        }
      ],
      "stateMutability": "view",
      "type": "function"
    },
    {
      "inputs": [
        {
          "internalType": "uint8",
          "name": "",
          "type": "uint8"
        }
      ],
      "name": "seats",
      "outputs": [
        {
          "internalType": "uint8",
          "name": "",
          "type": "uint8"
        }
      ],
      "stateMutability": "view",
      "type": "function"
    },
    {
      "inputs": [
        {
          "components": [
            {
              "internalType": "string",
              "name": "name",
              "type": "string"
            },
            {
              "internalType": "uint256",
              "name": "votesBiden",
              "type": "uint256"
            },
            {
              "internalType": "uint256",
              "name": "votesTrump",
              "type": "uint256"
            },
            {
              "internalType": "uint8",
              "name": "stateSeats",
              "type": "uint8"
            }
          ],
          "internalType": "struct USElection.StateResult",
          "name": "result",
          "type": "tuple"
        }
      ],
      "name": "submitStateResult",
      "outputs": [],
      "stateMutability": "nonpayable",
      "type": "function"
    },
    {
      "inputs": [
        {
          "internalType": "address",
          "name": "newOwner",
          "type": "address"
        }
      ],
      "name": "transferOwnership",
      "outputs": [],
      "stateMutability": "nonpayable",
      "type": "function"
    }
  ],
  "bytecode": "0x608060405234801561001057600080fd5b5061002d61002261003260201b60201c565b61003a60201b60201c565b6100fe565b600033905090565b60008060009054906101000a900473ffffffffffffffffffffffffffffffffffffffff169050816000806101000a81548173ffffffffffffffffffffffffffffffffffffffff021916908373ffffffffffffffffffffffffffffffffffffffff1602179055508173ffffffffffffffffffffffffffffffffffffffff168173ffffffffffffffffffffffffffffffffffffffff167f8be0079c531659141344cd1fd0a4f28419497f9722a3daafe3b4186f6b6457e060405160405180910390a35050565b611ec68061010d6000396000f3fe608060405234801561001057600080fd5b50600436106100a95760003560e01c8063715018a611610071578063715018a6146101545780638da5cb5b1461015e578063ac4bd53a1461017c578063c94ca9e31461019a578063e494a883146101b8578063f2fde38b146101d4576100a9565b80632d78d8e5146100ae57806337ad98ec146100cc57806359f78468146100fc57806369b36bd414610106578063713d87c514610124575b600080fd5b6100b66101f0565b6040516100c39190611be3565b60405180910390f35b6100e660048036038101906100e1919061174b565b6101f5565b6040516100f39190611abd565b60405180910390f35b61010461022b565b005b61010e6105dc565b60405161011b9190611be3565b60405180910390f35b61013e600480360381019061013991906117cd565b6105e1565b60405161014b9190611be3565b60405180910390f35b61015c610601565b005b610166610689565b6040516101739190611aa2565b60405180910390f35b6101846106b2565b6040516101919190611be3565b60405180910390f35b6101a2610a1a565b6040516101af9190611abd565b60405180910390f35b6101d260048036038101906101cd919061178c565b610a2d565b005b6101ee60048036038101906101e99190611722565b6113e9565b005b600281565b6002818051602081018201805184825260208301602085012081835280955050505050506000915054906101000a900460ff1681565b6102336114e1565b73ffffffffffffffffffffffffffffffffffffffff16610251610689565b73ffffffffffffffffffffffffffffffffffffffff16146102a7576040517f08c379a000000000000000000000000000000000000000000000000000000000815260040161029e90611ba8565b60405180910390fd5b6102d37fc19293e49daec3a6b4e970c2640bb3d384298ded6831ab0c9cd9278823f31a9060001b6114e9565b6102ff7f6ff9a0fc9dda7c8a1649d6ea75439b16d07dc1315d0eb1b3038cae3c6122211660001b6114e9565b61032b7f242a18549e56ece001ffe33fea5eafca98955d03bd7448b042ee4753d7af19a260001b6114e9565b6103796040518060400160405280601681526020017f5553456c656374696f6e20656e6465643a202025732000000000000000000000815250600060149054906101000a900460ff166114ec565b6103a57f610b20532aa70a3cd6e62a5efbc7497d1f5221afc92fbc1534a0661a1bd68c3660001b6114e9565b6103d17faeb37bd2d18f10d1ae33449447460d3571084db9244d3ab84acb24b911a5945e60001b6114e9565b6103fd7fa1db8ec1031662cc19d49817fd12ab839a7971069cae81faa3b21870ebd18d2c60001b6114e9565b600060149054906101000a900460ff161561044d576040517f08c379a000000000000000000000000000000000000000000000000000000000815260040161044490611b28565b60405180910390fd5b6104797fa355c4bf6042c30302bf724b0983c8e4873da97423d200787899c8270b6fca9260001b6114e9565b6104a57fab6ed7691fa8fb58efd10218af9877b0228ee6a7910afb279d5a2b3d25fb873960001b6114e9565b6104d17f9f7dfb206a420ca0526c1164ddc90f6cbb951cb22e84c955041628394ad2fbe160001b6114e9565b6104fd7f89c20659b8ef21540c95506460327f331e4f7e63cd416eb062a6c9351738ba6460001b6114e9565b6105297f6b6c56ebaacc1d323a7a609275fe4935a332eddc0e0aed9109292a7f7dc602b460001b6114e9565b6001600060146101000a81548160ff0219169083151502179055506105707f1a9a9ed14da9cf403f77829095790e317d773d856eeeeb4cc4e62e0a27fdfac460001b6114e9565b61059c7fcf82bea4ed9aecc66fd301ccf215adc3028a76ce8ff79f49992684a35ff1193460001b6114e9565b7faacb23683ec1a0e9b52f9a6264edf58ad322ac62079d65ea7363a2d400f439f46105c56106b2565b6040516105d29190611bc8565b60405180910390a1565b600181565b60016020528060005260406000206000915054906101000a900460ff1681565b6106096114e1565b73ffffffffffffffffffffffffffffffffffffffff16610627610689565b73ffffffffffffffffffffffffffffffffffffffff161461067d576040517f08c379a000000000000000000000000000000000000000000000000000000000815260040161067490611ba8565b60405180910390fd5b6106876000611588565b565b60008060009054906101000a900473ffffffffffffffffffffffffffffffffffffffff16905090565b60006106e07f9aacbd73525f2ad6e222bc9ef374ad0f66c6e4736ac12729026e425ddcd39d6360001b6114e9565b61070c7f92ec499c217bc41339f1b29e4852cdcf74c3aac990ac5b8f2e2a51449bacf58760001b6114e9565b6107387fbf4f7d058db287996e06a24d982744224065cce6fc6f620e37c8eca4386993f160001b6114e9565b60016000600260ff1660ff16815260200190815260200160002060009054906101000a900460ff1660ff1660016000600160ff1660ff16815260200190815260200160002060009054906101000a900460ff1660ff161115610821576107c07f0e11f0aec9986afbed4ea220624d8397a55c7b386c8a9b25b66fc46da87deb9a60001b6114e9565b6107ec7fe66f2331fb098b1572f42a3a39ab79e1528401ee8188eec4e6c36ecc1a54a29d60001b6114e9565b6108187f753fb13e18828df2b8c5d49faadb0695bc96565184837f38cb52965f7820b40360001b6114e9565b60019050610a17565b61084d7f9ff2ff8b7a3f0e1679e9cc55308991eb76cb6eb9d9028954f1f2a406d16301da60001b6114e9565b6108797f1dac9feaec89152910a1aef6486cbbfbb81699673bac54bf50ad10df5f8d781e60001b6114e9565b6108a57f09a6f2169578a27845b910b95dd30ee8b38d937ff89817103cb86010392fcb0860001b6114e9565b60016000600160ff1660ff16815260200190815260200160002060009054906101000a900460ff1660ff1660016000600260ff1660ff16815260200190815260200160002060009054906101000a900460ff1660ff16111561098e5761092d7f7f18ff3983ac06dae0968e914135d25a6197c8c92a211bdc6dfca18c4d848e8860001b6114e9565b6109597f12c2c27bd708656d7f7c916ad0b052d1ee93e84684f4dd14a61bea8fd33344cd60001b6114e9565b6109857f7970a34310def086e2e83fc57fc9feb6f0a139d9ae0936128ba29c0281e9e21460001b6114e9565b60029050610a17565b6109ba7f9657ef82a67e297315fe6f10257c70f2b8f49d27478a4896704e9aa5fd0031d960001b6114e9565b6109e67f76bc186046da4991ad374fa03ce4677c7944d07adea7972759e30fc7b77d6dc360001b6114e9565b610a127fd50b4acae0bb3fa8c2010cb66e8bb8d64457ad3f001aa53b9e9edc14d5ad066a60001b6114e9565b600090505b90565b600060149054906101000a900460ff1681565b610a356114e1565b73ffffffffffffffffffffffffffffffffffffffff16610a53610689565b73ffffffffffffffffffffffffffffffffffffffff1614610aa9576040517f08c379a0000000000000000000000000000000000000000000000000000000008152600401610aa090611ba8565b60405180910390fd5b610ad57fc19293e49daec3a6b4e970c2640bb3d384298ded6831ab0c9cd9278823f31a9060001b6114e9565b610b017f6ff9a0fc9dda7c8a1649d6ea75439b16d07dc1315d0eb1b3038cae3c6122211660001b6114e9565b610b2d7f242a18549e56ece001ffe33fea5eafca98955d03bd7448b042ee4753d7af19a260001b6114e9565b610b7b6040518060400160405280601681526020017f5553456c656374696f6e20656e6465643a202025732000000000000000000000815250600060149054906101000a900460ff166114ec565b610ba77f610b20532aa70a3cd6e62a5efbc7497d1f5221afc92fbc1534a0661a1bd68c3660001b6114e9565b610bd37faeb37bd2d18f10d1ae33449447460d3571084db9244d3ab84acb24b911a5945e60001b6114e9565b610bff7fa1db8ec1031662cc19d49817fd12ab839a7971069cae81faa3b21870ebd18d2c60001b6114e9565b600060149054906101000a900460ff1615610c4f576040517f08c379a0000000000000000000000000000000000000000000000000000000008152600401610c4690611b28565b60405180910390fd5b610c7b7fa355c4bf6042c30302bf724b0983c8e4873da97423d200787899c8270b6fca9260001b6114e9565b610ca77fab6ed7691fa8fb58efd10218af9877b0228ee6a7910afb279d5a2b3d25fb873960001b6114e9565b610cd37fcc9b7efb5d99c9fd34025777dcea8bd81d210e9b6c7a0851690035055e0178df60001b6114e9565b610cff7f219b60a2bc68b10c749a73fe688a31b6d736dd57831039eb15315ba99b000b8c60001b6114e9565b610d2b7f8c7dfec2399f3c8313eb77a7e792bc7bdd0ece40fa1a13e75bd956fe48a4434360001b6114e9565b610d577f9550b44f71ad4283ca2ec540bb5b09d95811e8bf18ca85f34f37f64c531aa0a760001b6114e9565b6000816060016020810190610d6c91906117cd565b60ff1611610daf576040517f08c379a0000000000000000000000000000000000000000000000000000000008152600401610da690611b88565b60405180910390fd5b610ddb7f428e780cc0c447d0356e23239df4954981f6e341d8c4697aa3a06bd933f777fb60001b6114e9565b610e077f24394a9448f6aa3381dd43083d566abd50829d78cafb9afba31883c8fb269e0c60001b6114e9565b610e337f2625463dc22ca11a3d246c3209e4d1be3ad036f56aa8de9ec730b6978dc0ed5060001b6114e9565b610e5f7f0b851cf26d8e4e56d3ba0b9a0899bbe3a63b31f6e9eee462805ca412cca7a3d960001b6114e9565b806040013581602001351415610eaa576040517f08c379a0000000000000000000000000000000000000000000000000000000008152600401610ea190611b68565b60405180910390fd5b610ed67fd4bfda82fbd6115486304f8a3e59fd661eebb539668c3c5e3bc1e6b1ba11d78160001b6114e9565b610f027f1c02d00c4af666dabe4313dfcdb3c74f22b95a934dd370c4dabbd5ef3015e1af60001b6114e9565b610f2e7f12b5a0c4434fd0d912ac0f96db19ae4519018b573e786fa95a53a0f7b59c25d160001b6114e9565b610f5a7fffb7c08fd51492f77b42d3116f281e684e0354d6e09b85eb933c8949e0baeb1560001b6114e9565b6002818060000190610f6c9190611c3e565b604051610f7a929190611a89565b908152602001604051809103902060009054906101000a900460ff1615610fd6576040517f08c379a0000000000000000000000000000000000000000000000000000000008152600401610fcd90611b08565b60405180910390fd5b6110027f8e1581ef85fd0e6e32c7c23706685e9829a82f478d72cd1f9d1c079d359bd52460001b6114e9565b61102e7fb7df9a2e96fd988f5e4ec788eec119dfca0f3da677103c5481c325a55a24b95c60001b6114e9565b61105a7fbae9e4596714e34df52c660ae6e933b86bad6c04bbf91b84b4ad9172372ae97460001b6114e9565b60006110887f89adfaf77086e3f6622b09037dbbcaa0e5fa81c30f83289add863f016408f8a760001b6114e9565b6110b47fe7b52fd261332ddd6fcae97a0404bd5d1327bccf74b3c0eb265ac34ada68997860001b6114e9565b816040013582602001351115611151576110f07f0627c32b1c5f348d60edd64688a201d0ed35022b2817aaf22c4998524632225860001b6114e9565b61111c7f2ee22b9567cb9090eecacb8d914575bb674ca905f831db461dd28847b7d6b6e560001b6114e9565b6111487fce7c93c91e54148dccb327683c7f8d258f3cee2b06bcc452d9fc1b4932770bfb60001b6114e9565b600190506111da565b61117d7f71c28298c0cb8e49ef9af0dff729cae0c4de204f730d9234ca303a969a1cb0c360001b6114e9565b6111a97f9a9fa139d5a2048880ae55c0deaf3b6c07e5e59e8d3569a3abe224775be8c26a60001b6114e9565b6111d57f0fb9a182aff8a37399baf23b35c252930b37998eeb8f90e93b7d9def168a395660001b6114e9565b600290505b6112067fc9e64769011c4b803db280f5e30922f4ae39b243008e3a9123a0b3c1c1c82ab260001b6114e9565b6112327f248f2536515d52efed76f56b605e2c063e7220dcb38dfabdc8ba6194650849b260001b6114e9565b81606001602081019061124591906117cd565b600160008360ff1660ff16815260200190815260200160002060008282829054906101000a900460ff166112799190611d1d565b92506101000a81548160ff021916908360ff1602179055506112bd7f67a032c5109653fcde0e0820a878a2815e5744704fa1a8cedb1b5cd05eb59ccf60001b6114e9565b6112e97f899a37201bc611895ff75660b8cbde31416f4b8fa342c7194a916331ebb847d160001b6114e9565b600160028380600001906112fd9190611c3e565b60405161130b929190611a89565b908152602001604051809103902060006101000a81548160ff02191690831515021790555061135c7f7e5e11e06b865a9f85775ec07f2da4f619f429b31d1b623cbe89ac16e9e0a68560001b6114e9565b6113887f768c9229c0bdf11e38e525d8f56537342241798460941835361288054acdc73e60001b6114e9565b7fa2e71fe38f1afa3762cf9d2ea7bb6a4d272a90fd6f9392f3acedd3b542046b46818360600160208101906113bd91906117cd565b8480600001906113cd9190611c3e565b6040516113dd9493929190611bfe565b60405180910390a15050565b6113f16114e1565b73ffffffffffffffffffffffffffffffffffffffff1661140f610689565b73ffffffffffffffffffffffffffffffffffffffff1614611465576040517f08c379a000000000000000000000000000000000000000000000000000000000815260040161145c90611ba8565b60405180910390fd5b600073ffffffffffffffffffffffffffffffffffffffff168173ffffffffffffffffffffffffffffffffffffffff1614156114d5576040517f08c379a00000000000000000000000000000000000000000000000000000000081526004016114cc90611b48565b60405180910390fd5b6114de81611588565b50565b600033905090565b50565b6115848282604051602401611502929190611ad8565b6040516020818303038152906040527fc3b55635000000000000000000000000000000000000000000000000000000007bffffffffffffffffffffffffffffffffffffffffffffffffffffffff19166020820180517bffffffffffffffffffffffffffffffffffffffffffffffffffffffff838183161783525050505061164c565b5050565b60008060009054906101000a900473ffffffffffffffffffffffffffffffffffffffff169050816000806101000a81548173ffffffffffffffffffffffffffffffffffffffff021916908373ffffffffffffffffffffffffffffffffffffffff1602179055508173ffffffffffffffffffffffffffffffffffffffff168173ffffffffffffffffffffffffffffffffffffffff167f8be0079c531659141344cd1fd0a4f28419497f9722a3daafe3b4186f6b6457e060405160405180910390a35050565b60008151905060006a636f6e736f6c652e6c6f679050602083016000808483855afa5050505050565b600061168861168384611cc6565b611c95565b9050828152602081018484840111156116a057600080fd5b6116ab848285611db1565b509392505050565b6000813590506116c281611e62565b92915050565b600082601f8301126116d957600080fd5b81356116e9848260208601611675565b91505092915050565b60006080828403121561170457600080fd5b81905092915050565b60008135905061171c81611e79565b92915050565b60006020828403121561173457600080fd5b6000611742848285016116b3565b91505092915050565b60006020828403121561175d57600080fd5b600082013567ffffffffffffffff81111561177757600080fd5b611783848285016116c8565b91505092915050565b60006020828403121561179e57600080fd5b600082013567ffffffffffffffff8111156117b857600080fd5b6117c4848285016116f2565b91505092915050565b6000602082840312156117df57600080fd5b60006117ed8482850161170d565b91505092915050565b6117ff81611d54565b82525050565b61180e81611d66565b82525050565b60006118208385611d01565b935061182d838584611db1565b61183683611e51565b840190509392505050565b600061184d8385611d12565b935061185a838584611db1565b82840190509392505050565b600061187182611cf6565b61187b8185611d01565b935061188b818560208601611dc0565b61189481611e51565b840191505092915050565b60006118ac602883611d01565b91507f5468697320737461746520726573756c742077617320616c726561647920737560008301527f626d6974746564210000000000000000000000000000000000000000000000006020830152604082019050919050565b6000611912601e83611d01565b91507f54686520656c656374696f6e2068617320656e64656420616c726561647900006000830152602082019050919050565b6000611952602683611d01565b91507f4f776e61626c653a206e6577206f776e657220697320746865207a65726f206160008301527f64647265737300000000000000000000000000000000000000000000000000006020830152604082019050919050565b60006119b8601583611d01565b91507f54686572652063616e6e6f7420626520612074696500000000000000000000006000830152602082019050919050565b60006119f8602083611d01565b91507f537461746573206d7573742068617665206174206c65617374203120736561746000830152602082019050919050565b6000611a38602083611d01565b91507f4f776e61626c653a2063616c6c6572206973206e6f7420746865206f776e65726000830152602082019050919050565b611a7481611d9f565b82525050565b611a8381611d92565b82525050565b6000611a96828486611841565b91508190509392505050565b6000602082019050611ab760008301846117f6565b92915050565b6000602082019050611ad26000830184611805565b92915050565b60006040820190508181036000830152611af28185611866565b9050611b016020830184611805565b9392505050565b60006020820190508181036000830152611b218161189f565b9050919050565b60006020820190508181036000830152611b4181611905565b9050919050565b60006020820190508181036000830152611b6181611945565b9050919050565b60006020820190508181036000830152611b81816119ab565b9050919050565b60006020820190508181036000830152611ba1816119eb565b9050919050565b60006020820190508181036000830152611bc181611a2b565b9050919050565b6000602082019050611bdd6000830184611a6b565b92915050565b6000602082019050611bf86000830184611a7a565b92915050565b6000606082019050611c136000830187611a7a565b611c206020830186611a7a565b8181036040830152611c33818486611814565b905095945050505050565b60008083356001602003843603038112611c5757600080fd5b80840192508235915067ffffffffffffffff821115611c7557600080fd5b602083019250600182023603831315611c8d57600080fd5b509250929050565b6000604051905081810181811067ffffffffffffffff82111715611cbc57611cbb611e22565b5b8060405250919050565b600067ffffffffffffffff821115611ce157611ce0611e22565b5b601f19601f8301169050602081019050919050565b600081519050919050565b600082825260208201905092915050565b600081905092915050565b6000611d2882611d92565b9150611d3383611d92565b92508260ff03821115611d4957611d48611df3565b5b828201905092915050565b6000611d5f82611d72565b9050919050565b60008115159050919050565b600073ffffffffffffffffffffffffffffffffffffffff82169050919050565b600060ff82169050919050565b6000611daa82611d92565b9050919050565b82818337600083830152505050565b60005b83811015611dde578082015181840152602081019050611dc3565b83811115611ded576000848401525b50505050565b7f4e487b7100000000000000000000000000000000000000000000000000000000600052601160045260246000fd5b7f4e487b7100000000000000000000000000000000000000000000000000000000600052604160045260246000fd5b6000601f19601f8301169050919050565b611e6b81611d54565b8114611e7657600080fd5b50565b611e8281611d92565b8114611e8d57600080fd5b5056fea264697066735822122091347e0953ee005272a179e865c438d2164bd551169fb66c8a51f2a1f030609964736f6c63430008000033",
  "linkReferences": {},
  "deployedLinkReferences": {}
}