{
  "_format": "hh-sol-artifact-1",
  "contractName": "Ownable",
  "sourceName": "contracts/Ownable.sol",
  "abi": [
    {
      "inputs": [],
      "stateMutability": "nonpayable",
      "type": "constructor"
    },
    {
      "inputs": [],
      "name": "owner",
      "outputs": [
        {
          "internalType": "address",
          "name": "",
          "type": "address"
        }
      ],
      "stateMutability": "view",
      "type": "function"
    }
  ],
  "bytecode": "0x608060405234801561001057600080fd5b506100437fe5bd0f4cf20a27f86802d5273934a768649c0c9d73a958f5b31dafab231c59d160001b6100ec60201b60201c565b6100757f27440cc580482bfa00943011535d4266b2603cc988065cb7a419ea258965c6d260001b6100ec60201b60201c565b6100a77f2baeb31578da9782ea85c52cadc05c5b8bf68bf560abe3156286d04d2692457860001b6100ec60201b60201c565b336000806101000a81548173ffffffffffffffffffffffffffffffffffffffff021916908373ffffffffffffffffffffffffffffffffffffffff1602179055506100ef565b50565b60f7806100fd6000396000f3fe6080604052348015600f57600080fd5b506004361060285760003560e01c80638da5cb5b14602d575b600080fd5b60336047565b604051603e91906078565b60405180910390f35b60008054906101000a900473ffffffffffffffffffffffffffffffffffffffff1681565b6072816091565b82525050565b6000602082019050608b6000830184606b565b92915050565b6000609a8260a1565b9050919050565b600073ffffffffffffffffffffffffffffffffffffffff8216905091905056fea2646970667358221220a97d6b11684791305514d9977017b05ff577e35a974b1b22864f7825975aca0864736f6c63430008040033",
  "linkReferences": {},
  "deployedLinkReferences": {}
}