{
  "_format": "hh-sol-artifact-1",
  "contractName": "Ownable",
  "sourceName": "contracts/Ownable.sol",
  "abi": [
    {
      "inputs": [],
      "stateMutability": "nonpayable",
      "type": "constructor"
    },
    {
      "inputs": [],
      "name": "owner",
      "outputs": [
        {
          "internalType": "address",
          "name": "",
          "type": "address"
        }
      ],
      "stateMutability": "view",
      "type": "function"
    }
  ],
  "bytecode": "0x608060405234801561001057600080fd5b5061005a6040518060400160405280601c81526020017f636f6e7374727563746f72206d73672e73656e6465723a2020257320000000008152503361009f60201b6100721760201c565b336000806101000a81548173ffffffffffffffffffffffffffffffffffffffff021916908373ffffffffffffffffffffffffffffffffffffffff160217905550610274565b61013d82826040516024016100b59291906101b2565b6040516020818303038152906040527f319af333000000000000000000000000000000000000000000000000000000007bffffffffffffffffffffffffffffffffffffffffffffffffffffffff19166020820180517bffffffffffffffffffffffffffffffffffffffffffffffffffffffff838183161783525050505061014160201b60201c565b5050565b60008151905060006a636f6e736f6c652e6c6f679050602083016000808483855afa5050505050565b610173816101fe565b82525050565b6000610184826101e2565b61018e81856101ed565b935061019e818560208601610230565b6101a781610263565b840191505092915050565b600060408201905081810360008301526101cc8185610179565b90506101db602083018461016a565b9392505050565b600081519050919050565b600082825260208201905092915050565b600061020982610210565b9050919050565b600073ffffffffffffffffffffffffffffffffffffffff82169050919050565b60005b8381101561024e578082015181840152602081019050610233565b8381111561025d576000848401525b50505050565b6000601f19601f8301169050919050565b610292806102836000396000f3fe608060405234801561001057600080fd5b506004361061002b5760003560e01c80638da5cb5b14610030575b600080fd5b61003861004e565b604051610045919061017f565b60405180910390f35b60008054906101000a900473ffffffffffffffffffffffffffffffffffffffff1681565b61010a828260405160240161008892919061019a565b6040516020818303038152906040527f319af333000000000000000000000000000000000000000000000000000000007bffffffffffffffffffffffffffffffffffffffffffffffffffffffff19166020820180517bffffffffffffffffffffffffffffffffffffffffffffffffffffffff838183161783525050505061010e565b5050565b60008151905060006a636f6e736f6c652e6c6f679050602083016000808483855afa5050505050565b610140816101e6565b82525050565b6000610151826101ca565b61015b81856101d5565b935061016b818560208601610218565b6101748161024b565b840191505092915050565b60006020820190506101946000830184610137565b92915050565b600060408201905081810360008301526101b48185610146565b90506101c36020830184610137565b9392505050565b600081519050919050565b600082825260208201905092915050565b60006101f1826101f8565b9050919050565b600073ffffffffffffffffffffffffffffffffffffffff82169050919050565b60005b8381101561023657808201518184015260208101905061021b565b83811115610245576000848401525b50505050565b6000601f19601f830116905091905056fea26469706673582212201cc17f4e6af76ebc32abf8de0bf02516cac4477d7c968e9a75f32c758f94a13964736f6c63430008000033",
  "linkReferences": {},
  "deployedLinkReferences": {}
}